S0130000426F6F746C6F61646572582E73726563AE
S214060000FDC000000DC100000BC1000009C10000C4
S21406001007C1000005C1000003C1000001C10000C1
S214060020FFC00000FDC00000FBC00000F9C00000D5
S214060030F7C00000F5C00000F3C00000F1C00000E5
S214060040EFC00000EDC00000EBC00000E9C00000F5
S214060050E7C00000E5C00000E3C00000E1C0000005
S214060060DFC00000DDC00000DBC00000D9C0000015
S214060070D7C00000D5C00000D3C00000D1C0000025
S214060080CFC00000CDC00000CBC00000C9C0000035
S214060090C7C00000C5C00000C3C00000C1C0000045
S2140600A0BFC00000BDC00000BBC00000B9C0000055
S2140600B0B7C00000B5C00000B3C00000B1C0000065
S2140600C0AFC00000ADC00000ABC00000A9C0000075
S2140600D0A7C00000A5C00000A3C00000A1C0000085
S2140600E09FC000009DC000009BC0000099C0000095
S2140600F097C0000095C0000093C0000091C00000A5
S2140601008FC000008DC000008BC0000089C00000B4
S21406011087C0000085C0000083C0000081C00000C4
S2140601207FC000007DC000007BC0000079C00000D4
S21406013077C0000075C0000073C0000071C00000E4
S2140601406FC000006DC000006BC0000069C00000F4
S21406015067C0000065C0000063C0000061C0000004
S2140601605FC000005DC000005BC0000059C0000014
S21406017057C0000055C0000053C0000051C0000024
S2140601804FC000004DC000004BC0000049C0000034
S21406019047C0000045C0000043C0000041C0000044
S2140601A03FC000003DC000003BC0000039C0000054
S2140601B037C0000035C0000033C0000031C0000064
S2140601C02FC000002DC000002BC0000029C0000074
S2140601D027C0000025C0000023C0000021C0000084
S2140601E01FC000001DC000001BC0000019C0000094
S2140601F017C0000015C0000013C0000011241FBE63
S214060200CFEFCDBFDFE9DEBF03E00CBF20E2A0E004
S214060210B0E201C01D92A030B207E1F70CD1F7C2DA
S214060220EFCE1BBEFC0128ED24BF60830895E0EAEE
S214060230F0E08281806498ED94BF82830895E0EAB8
S214060240F0E082818F7B98ED94BF82830895E0EC80
S214060250F1E027852223ECF342E2DBC20895E0ECC8
S214060260F1E027852223ECF345E2D3C20895E0ECBD
S214060270F1E087858823ECF346E260E070E0CB0188
S214060280C8C208954F925F926F927F928F929F9206
S214060290AF92BF92CF92DF92EF92FF920F931F9389
S2140602A0CF93DF93CDB7DEB7D250CDBFDEBF6C019E
S2140602B049015A016534D1F513D2ECECF1E08081A0
S2140602C0877F8083E12CF12CC114D104E104F1046C
S2140602D059F18E010F5F1F4F412C512C32018FD2E0
S2140602E0F80181938F01FFEF4F1A5F0A6F0A7F0AA4
S2140602F04C145D046E047F0491F78E010F5F1F4F4A
S214060300412C512C3201F80161918F01C201880DF2
S214060310991D09D2FFEF4F1A5F0A6F0A7F0A4C141F
S2140603205D046E047F0479F78DE032C0663469F5A5
S21406033029013A01440C551C661C771C98DFC1142B
S214060340D104D1F0E12CF12C00EC11E058D2A82E05
S214060350B12C55D2A501582BF80187858823E4F3DE
S214060360B701882777FD8095982F62D2F2E0EF0EC8
S214060370F11CEC14FD0450F3C301B20170DFE0EC8F
S214060380F1E087858823ECF302C08FE301C08DE099
S214060390DE5FCDBFDEBFDF91CF911F910F91FF903D
S2140603A0EF90DF90CF90BF90AF909F908F907F900A
S2140603B06F905F904F900895CF92DF92EF92FF92E4
S2140603C0CF93DF93EC0169017A01653491F4ECEC86
S2140603D0F1E08081877F808383D1C60170D102D207
S2140603E08FEFC81AD80AE80AF80A21972097A9F7BD
S2140603F01BC06634C9F4CC0CDD1CEE1CFF1CEBBE21
S214060400F6018791EFD1D701C6010196A11DB11D50
S214060410ABBFFC018791E6D182E0C80ED11CE11C79
S214060420F11C2297209759F7DF91CF91FF90EF9016
S214060430DF90CF900895FBDEECECF1E08081877FBD
S2140604408083E0E6F6E0848180618483BFD100E0A5
S21406045010E0C12CD12C7601C0ECD1E0D0D181368B
S21406046019F489E5BFD1FACF813471F4C8D1C82E04
S214060470D12CE12CF12CFE2CED2CDC2CCC24BFD17F
S214060480C82A8DE0AFD1EACF8834C9F4B8D1C82ED1
S214060490D12CE12CF12C7601DD24CC24B0D1B82E5B
S2140604A0AED1C82A8B2D90E0982F8827A0E0B0E022
S2140604B0C82AD92AEA2AFB2A8DE094D1CFCF8536D8
S2140604C0B9F4C12CD12C76018F858823ECF3C701AD
S2140604D0B601BDDE82E0D80EE11CF11CC114D104C3
S2140604E0E6E0EE06F10481F76DD18DE07BD1B6CF5E
S2140604F0823639F489E576D182E074D180E072D10D
S214060500ADCF823479F47BD1082F79D110E0102F45
S2140605100027082B74D1A7019601682FC801B2DE02
S21406052061D19CCF873671F46AD1082F68D110E066
S214060530102F0027082B63D1A7019601682FC80144
S2140605403BDF8CCF8235E1F48F858823ECF34601BA
S2140605505701880C991CAA1CBB1CD501C401019620
S214060560A11DB11DABBFFC0187913CD1ABBEF4010A
S214060570879138D1FFEFCF1ADF0AEF0AFF0A6ECF50
S214060580833631F43CD1082F10E08DE02BD166CFB0
S2140605908334A9F434D1182B8F858823ECF3C7014E
S2140605A0B601660F771F881F991FA80141D18FEFE6
S2140605B0C81AD80AE80AF80A8DE014D14FCF8D3645
S2140605C0B1F4C114D104E3E0EE06F10418F08FE3AB
S2140605D009D144CF8F858823ECF3C701B601660F91
S2140605E0771F881F991F3BDE8DE0FCD037CF8434FB
S2140605F051F405D1682FC60196D0FFEFCF1ADF0A51
S214060600EF0AFF0A2BCF843649F4C60158D0EAD043
S2140606108FEFC81AD80AE80AF80A20CF803511F0F4
S2140606208C3419F48DE0DED019CF853459F48F85D5
S2140606308823ECF38DE0D6D002DE1CBEE0E0F0E0C8
S21406064019950CCF803719F483E5CCD007CF8437BD
S21406065029F48AEFC7D080E0C5D000CF98E8980F77
S214060660923010F0843521F4CAD08DE0BBD0F6CE99
S214060670833579F481E4B6D086E5B4D082E5B2D087
S21406068082E4B0D08FE4AED08FE4ACD084E5AAD0B6
S214060690E5CE863529F481E3A5D087E3A3D0DECE62
S2140606A0833739F485E49ED088E99CD08EE19AD0CB
S2140606B0D5CE8B3109F4D2CE8FE394D0CFCEE0ECF4
S2140606C0F1E027852223ECF3ECECF1E020812860AC
S2140606D02083DC01B05F8C919081977F908308958C
S2140606E0E0ECF1E087858823ECF3E0ECF1E0878523
S2140606F081FF06C086E3828761E08BEC91E091CDB0
S2140607000895E0ECF1E097859923ECF3ECECF1E044
S214060710908198609083A82FB0E0B05F6C9380813C
S214060720877F80830895FF920F931F93CF93DF935F
S214060730182FF92EC62FE0ECF1E00285D1DFE0ECAB
S214060740F1E027852223ECF36C2F812FDADFC0EC4D
S214060750D1E01A82F982188385E38A8761E08BECFA
S21406076091E05FDD0A87DF91CF911F910F91FF9091
S2140607700895CF93DF93D82FB3DFE0ECF1E08785BB
S2140607808823ECF3C0E06D2F8C2FBBDFCF5FC03223
S214060790D1F7DF91CF9108951F93CF93DF93E0ECC7
S2140607A0F1E087858823ECF3C0ECD1E01A8580E378
S2140607B08A8761E08BEC91E034DD1A87DF91CF9172
S2140607C01F9108958FEFD5DFE7CF0895E0E6F6E0B0
S2140607D0818188608183E0EAF9E08CE0868388E19F
S2140607E0848308958093A009E0EAF9E0818186FF74
S2140607F0FDCFE0EAF9E08181806481830895E0EA2E
S214060800F9E081818823ECF78091A0090895F89491
S206060810FFCF0D
S2140608129BB78BBFFB018091CA014093CA017DE953
S21406082270933400E8958093CA019BBF0895209181
S214060832CF0127FDFCCF9BB78BBFFB018091CA0178
S21406084223E22093CA010A01E89511248093CA017D
S2080608529BBF0895A0
S804060000F5
