:10000000FDC000001BC1000019C1000017C10000A5
:1000100015C1000013C1000011C100000FC1000094
:100020000DC100000BC1000056C4000007C1000054
:1000300005C1000003C1000001C10000FFC00000B5
:10004000FDC00000FBC00000F9C00000F7C00000C8
:10005000F5C00000F3C00000F1C00000EFC00000D8
:10006000EDC00000EBC00000E9C00000E7C00000E8
:10007000E5C00000E3C00000E1C00000DFC00000F8
:10008000DDC00000DBC00000D9C00000D7C0000008
:10009000D5C00000D3C00000D1C00000CFC0000018
:1000A000CDC00000CBC00000C9C00000C7C0000028
:1000B000C5C00000C3C00000C1C00000BFC0000038
:1000C000BDC00000BBC00000B9C00000B7C0000048
:1000D000B5C00000B3C00000B1C00000AFC0000058
:1000E000ADC00000ABC00000A9C00000A7C0000068
:1000F000A5C00000A3C00000A1C000009FC0000078
:100100009DC000009BC0000099C0000097C0000087
:1001100095C0000093C0000091C000008FC0000097
:100120008DC000008BC0000089C0000087C00000A7
:1001300085C0000083C0000081C000007FC00000B7
:100140007DC000007BC0000079C0000077C00000C7
:1001500075C0000073C0000071C000006FC00000D7
:100160006DC000006BC0000069C0000067C00000E7
:1001700065C0000063C0000061C000005FC00000F7
:100180005DC000005BC0000059C0000057C0000007
:1001900055C0000053C0000051C000004FC0000017
:1001A0004DC000004BC0000049C0000047C0000027
:1001B00045C0000043C0000041C000003FC0000037
:1001C0003DC000003BC0000039C0000037C0000047
:1001D00035C0000033C0000031C000002FC0000057
:1001E0002DC000002BC0000029C0000027C0000067
:1001F00025C0000023C0000021C0000011241FBE44
:10020000CFEFCDBFDFE9DEBF00E00CBF15E4A0E01B
:10021000B0E2EAE3F8E900E00BBF02C007900D92FC
:10022000A831B107D9F727E6A8E1B5E401C01D92CE
:10023000AE3AB207E1F7C5D00C941B4CE1CE0F9358
:100240001F93CF93DF93CDB7DEB7C659D109CDBF8A
:10025000DEBFFE01E256FF4F61917191AF01CE0109
:1002600001960E946B498C01BE016F5F7F4F80EA4F
:100270009AE049D2C801CA56DF4FCDBFDEBFDF9139
:10028000CF911F910F9108954F925F926F927F923D
:100290008F929F92AF92BF92CF92DF92EF92FF9296
:1002A0000F931F93CF93DF93EC017A015901912CA7
:1002B000062F10E0680181E0C81AD108292D30E02E
:1002C0002C153D05E4F5FE01E20FF31F80818A3A0B
:1002D000A1F58181853589F5C901029680179107BD
:1002E00064F58C0F9D1FFC018080682D70E02D5FF0
:1002F0003F4F260F371FA9014F5F5F4F4017510730
:10030000E4F4FE01E20FF31F4080512C542C4424EE
:100310002181422A612C712C6F5F7F4F40E0C5D252
:10032000461657066806790641F483E0890DF70101
:100330008083F501808281E003C09394BFCF80E089
:10034000DF91CF911F910F91FF90EF90DF90CF90B1
:10035000BF90AF909F908F907F906F905F904F90E5
:1003600008950F931F93CF93DF938EE090E29F93B6
:100370008F93E0910020F091012019957AD48C019F
:100380000F900F90C2E2D0E2F801819191918F011C
:10039000009791F08BD4FC0125812F9384818F935A
:1003A000DF93CF93E0910020F091012019950F90F9
:1003B0000F900F900F90E8CFDF91CF911F910F9189
:1003C0000895CF93DF93CDB7DEB7CA50D140CDBFEC
:1003D000DEBF8FEF8093B00090E49093300680935F
:1003E000210681EA809324068091500084608093E6
:1003F00050008091510082FFFCCF809150008260BC
:10040000809350008091510081FFFCCF81E0D4D0D7
:1004100081E0C8D061E082E0E9D08AE0DFD080915D
:10042000010480FDFCCF00E018E024E040E050E053
:1004300060E070E081E090E073D260E081E08ED215
:1004400048E04093810634E03093820623E0209315
:10045000A50A9FEC9093A60A1092A70A8091A40A7D
:1004600080618093A40A8091A40A88608093A40A82
:1004700040936106309362062093A5099093A609E4
:100480001092A7098091A40980618093A4098091AA
:10049000A40988608093A4098091A2008160809360
:1004A000A2007894C65FDE4F1882CA50D140C75F61
:1004B000DE4F1882C950D1408FE191E00E94D50AE9
:1004C000CE018B5F9E4F52D210E000EF41E050E032
:1004D0004C0F5D1F410F511D68E070E080EA99E00C
:1004E000A4D0882311F01F5FF1CF1123F9F09E01F2
:1004F000275F3E4FAE01465F5E4F612FCE010196F2
:10050000C3DE882399F0C65FDE4F8881CA50D14090
:1005100061E070E06C0F7D1F680F711DC75FDE4FDB
:100520004881C950D14080EA9AE007D11ADFCE0154
:100530008F5F9E4F1BD2CF5FDE4F88819981AA814A
:10054000BB81C150D140CB5FDE4F488159816A8168
:100550007B81C550D140841B950BA60BB70B883E01
:100560009340A105B10510F410E0B0CFCE018B5F30
:100570009E4FFCD100932706F7CF0F93CF93DF93C5
:100580001F92CDB7DEB72FB72983F8941BBEFC01AD
:1005900008ED04BF608389818FBF0F90DF91CF91F9
:1005A0000F910895E0E5F0E02081982F9095922337
:1005B00090839081892308951F93CF93DF93182F01
:1005C000C0E4D0E06881687F682B80E490E0D5DFEC
:1005D00088818123DF91CF911F910895E0E4F0E0BD
:1005E0009381917F9160982B938308952091560079
:1005F000982F90959223611102C020E001C0282F0E
:10060000922B90935600813031F480916800816084
:10061000809368000895823011F0843029F480912D
:10062000600081608093600008954F925F926F92A6
:100630007F92AF92BF92CF92DF92EF92FF920F9391
:100640001F93CF93DF93CDB7DEB72897CDBFDEBF23
:100650007C016B015A01CE01059688D18D819E8166
:10066000AF81B88589839A83AB83BC832601612CD3
:10067000712CF701818187FD15C089819A81AB8139
:10068000BC814D815E816F817885841B950BA60BA3
:10069000B70B84159505A605B70520F4CE01019684
:1006A00065D1E7CFF701818187FD14C009811A81E7
:1006B0002B813C818D819E81AF81B885081B190BF0
:1006C0002A0B3B0BC601A0E0B0E0081719072A0768
:1006D0003B0730F4F7018081F501808381E001C0A0
:1006E00080E02896CDBFDEBFDF91CF911F910F91A3
:1006F000FF90EF90DF90CF90BF90AF907F906F9082
:100700005F904F90089540E0242F30E0FB0101906E
:100710000020E9F73197E61BF70B2E173F0760F42F
:10072000FC01518155FFFCCFFB01E20FF31F20813B
:10073000FC0120834F5FE8CF0895362FFB012E2F59
:10074000231B241748F4DC0111962C91119725FFE7
:10075000FACF21912C93F3CF0895E0EDF0E0808162
:10076000806880838091184590911945A0911A4521
:10077000B0911B458483492F5A2F6B2F77274583D0
:10078000AD016627772746838B2F9927AA27BB279A
:100790008783109218451092194510921A451092AD
:1007A0001B450895CF92DF92EF92FF920F931F9314
:1007B0008091D10080FDFCCF8091D00085FF34C0B6
:1007C0003091D4004091D5002091D6006091D7009F
:1007D000862F90E0A0E0B0E0B82FAA2799278827BD
:1007E000942B832BA22B40E200E010E098016801DB
:1007F0007901CC0CDD1CEE1CFF1C8C019D010170ED
:100800001127222733270C0D1D1D2E1D3F1DB695C8
:10081000A79597958795415051F7C901B801609503
:1008200070958095909508C06091D4008091D50016
:1008300070E0782B80E090E01F910F91FF90EF9097
:10084000DF90CF900895E0EDF0E09081907F90836D
:100850009081982B90830895CF93DF931F92CDB70B
:10086000DEB789837ADF8981813029F48091D000D5
:1008700080628093D00081E00F90DF91CF91E3CF31
:10088000CF92DF92EF92FF92E1EDF0E08081816004
:10089000808388DF6B017C0180E0D5DFC701B60172
:1008A000FF90EF90DF90CF9008950F931F93CF9319
:1008B000DF93EC018B01842FCFDF0C0F1D1FC017BE
:1008C000D10721F089918093D300F9CFDF91CF91A7
:1008D0001F910F91D5CF1F920F920FB60F92112437
:1008E0008F939F93AF93BF9380911E4590911F4527
:1008F000A0912045B09121450196A11DB11D809385
:100900001E4590931F45A0932045B0932145BF916C
:10091000AF919F918F910F900FBE0F901F901895E0
:100920000F931F930197E0E0F4E08287938760873D
:100930007187448755878081887F282B2083109278
:100940001E4510921F45109220451092214500939C
:100950001C4510931D451F910F910895E0E0F4E0B0
:100960009281907F692B682B62830895CF92DF92EA
:10097000EF92FF92CF93DF93EC0160911E4570914F
:100980001F4580912045909121450E9486476B012B
:100990007C0160911C4570911D45882777FD8095ED
:1009A000982F0E9488479B01AC0160E070E08AE7C5
:1009B00094E40E94F2469B01AC01C701B6010E947B
:1009C00067480E94C3470E945A47688379838A8395
:1009D0009B8381E0DF91CF91FF90EF90DF90CF90EC
:1009E0000895009741F0DC01ED91FC91309719F0EA
:1009F00082859385089580E090E00895641B750BCF
:100A000020E0E22FF0E0E617F70738F4E80FF91FCF
:100A1000E40FF51F60832F5FF4CF0895CF93009705
:100A200091F14115510579F1FC01E60FF71F31975E
:100A3000C0812C2F30E0FB01E21BF30BDA01ED93B8
:100A4000FC9341E06217730708F040E021E0C11118
:100A500020E0422BDC0120E030E02617370771F060
:100A60008D918C2791E02E173F0708F490E0899F25
:100A7000802D1124482B2F5F3F4FEFCF442331F0BF
:100A800080E09EE905C080E09FE902C080E090E040
:100A9000CF910895641B750BFC01E40FF51F20E84E
:100AA000208321E0E22FF0E0E617F70738F4E80FA3
:100AB000F91FE40FF51F10822F5FF4CF0895CF9335
:100AC000FA01009779F1309769F110821182DC0107
:100AD000A60FB71F5FEF40E061157105F1F061509F
:100AE0007109C1E08E91811101C0C0E0C42B8C2F2F
:100AF0008427869F9001879F300D112480819181EA
:100B0000822B932B8083918391E0C41390E08C918E
:100B10008058892B58234C2FDFCF552331F080E0AC
:100B20009EE905C080E09FE902C080E090E0CF919F
:100B300008959B01241B350BA1E0EA2FF0E0E2179A
:100B4000F30740F4E80FF91FE40FF51F3197108207
:100B5000AF5FF3CFFC01E60FF71F319720830895B5
:100B60001F93CF93DF93009791F14115510579F1D0
:100B7000FB013197DC01AE0FBF1F1C91212F30E02C
:100B8000DB01A21BB30BEA01A883B98341E0621722
:100B9000730708F040E021E0111120E0422BEC0146
:100BA00020E030E02E173F0768F4999181E02A1782
:100BB0003B0708F480E0899F802D1124482B2F5F8C
:100BC0003F4FF0CF442331F080E09EE905C080E044
:100BD0009FE902C080E090E0DF91CF911F910895DE
:100BE000480F591F9A01281B390B2617370720F485
:100BF000FA011192AF01F6CF0895CF93FA01009751
:100C000031F1309721F11082118220E061157105D8
:100C1000D9F0AB0141505109DC01A40FB51FC1E06F
:100C20003C91311101C0C0E0C22B2C27269FD0017E
:100C3000279FB00D1124208131812A2B3B2B20834B
:100C400031832C2FBA01E2CF80E090E002C080E037
:100C50009FE9CF910895892B49F04115510531F055
:100C6000FA016083718380E090E0089580E09FE95D
:100C700008958091224590912345892BA1F4EEE4BB
:100C8000F7E6A8E2B0E28C91882329F0139690E071
:100C900081939193F8CF1082118281E090E080934C
:100CA0002245909323458EE497E60895282FE8E2A5
:100CB000F0E281819281009729F03081321711F0A2
:100CC0003396F7CF0895CF93DF93A8E2B0E2119661
:100CD000ED91FC911297309779F0C485D585988174
:100CE000981308C0228133812617370719F49181A0
:100CF000941711F01396EBCFCF01DF91CF910895A8
:100D0000CF93DF93EC010097A9F08DA59EA50097E6
:100D100049F0E881F9810484F585E02D0188F289A4
:100D2000E02D1995CE018F96C817D90719F01882B2
:100D30002196FACFDF91CF910895DC01009779F1E8
:100D4000ED91FC911197309751F1808581FD05C09F
:100D5000828193818417950711F512964D935C93C8
:100D6000139714962C931497213029F081818330A6
:100D700011F0853039F40484F585E02D0384F48581
:100D8000E02D08C021110BC00484F585E02D0584F9
:100D9000F685E02D9D968D919C919E97199480E00B
:100DA0009FE908954F925F926F927F928F929F92E8
:100DB000AF92BF92CF92DF92EF92FF920F931F9369
:100DC000CF93DF93EC014B015A0169013801009781
:100DD00011F480E05BC14880598041145104C9F38B
:100DE00001151105B1F3D8011D921C92F201118178
:100DF000113031F5F6DDA816B90609F043C1D3016B
:100E0000AD92BC92D2011C96ED91FC911D97018090
:100E1000F281E02D9601A4016C818DA59EA5DF9144
:100E2000CF911F910F91FF90EF90DF90CF90BF90E7
:100E3000AF909F908F907F906F905F904F9019949C
:100E40001630C9F4F30140835183AB01B5018DA580
:100E50009EA5DF91CF911F910F91FF90EF90DF90B2
:100E6000CF90BF90AF909F908F907F906F905F904A
:100E70004F900C9419236217730771F4898D9A8D22
:100E8000892B09F0A6CFCE01ACDDBC01C5010E94C3
:100E9000D948892B09F09DCF123009F0AAC08C8166
:100EA000098D1A8D811109C0CE019BDD9501200F9E
:100EB000311F82179307D0F00AC08130B9F4CE01F8
:100EC00090DD9501200F311F2817390778F4C801EC
:100ED0000996A501B4018C0F9D1F0E946249898D5E
:100EE0009A8D8A0D9B1D898F9A8FC9C00115110596
:100EF000D1F1CE0176DD2C01401A510AC8010996C4
:100F0000A201B4018C0F9D1F0E946249CE0169DDD0
:100F1000E881F9810484F585E02D0380F481E02DDA
:100F200076018E01075F1F4F9E01255E3F4FAC018A
:100F30006C818DA59EA51995009709F0A8C0CE01DA
:100F400050DDD3012D913C911197280F391F2D931E
:100F50003C93CE0146DDC80ED91E198E1A8E840C24
:100F6000951CA418B508A114B10409F488C0CE01D9
:100F700038DD382F292FC501632F722F0E94D948E1
:100F80002C01009729F48C81811102C0432E522E2E
:100F9000A418B508B4016A0D7B1DA201CE01099603
:100FA0000E946249898D9A8D840D951D898F9A8F33
:100FB000A114B10409F463C0E881F9810484F585C2
:100FC000E02D9E01255E3F4F0380F481E02D7601E8
:100FD0008401A5016C818DA59EA51995009709F046
:100FE00056C0F301808191818A0D9B1D808391837E
:100FF00046C01330A9F4D2011C96ED91FC911D97C7
:101000008E01055E1F4F9E01275E3F4F0580F681D2
:10101000E02D7401A5016C818DA59EA5199518C0C0
:101020001530E1F4D2011C96ED91FC911D978E01D3
:10103000075F1F4F9E01255E3F4FAE01475E5F4F2A
:101040000780F085E02D7401B5018DA59EA5199549
:101050000097E9F4F301A082B18211C01730A9F41E
:10106000D2011C96ED91FC911D970184F285E02D33
:101070009601A401B5018DA59EA51995E9CF80E043
:1010800090E005C080E89DE902C080E89FE9DF911B
:10109000CF911F910F91FF90EF90DF90CF90BF9075
:1010A000AF909F908F907F906F905F904F9008953A
:1010B000FC010097B1F1A081B18111968C91823031
:1010C00081F56230E1F058F4662391F0613061F50A
:1010D0008AE495E0858396838FE595E01DC06330B3
:1010E000A9F0643009F5158216828BE296E014C0EF
:1010F0008EEF94E0858396838EE095E00DC089E9BC
:1011000095E08583968380EB95E006C080EF95E0BF
:10111000858396838DEF95E08783908780E090E0CC
:10112000089580E09FE9089580E89FE908950F936E
:101130001F93CF93DF93EC018B0161157105E1F0F3
:101140000097D1F08FE2DE011D928A95E9F7DB016D
:101150001C96ED91FC911D970784F089E02D19955F
:101160008DA79EA7892B59F00883198360E0CE01D3
:101170009FDF80E090E005C080E09FE902C080E84A
:101180009EE9DF91CF911F910F910895CF93DF9347
:10119000EC0131D2E0910220F0910320CE01DF91E9
:1011A000CF911994CF93DF93E0910420F091052023
:1011B00060E871E081E090E01995EC01009709F09A
:1011C00011D2CE01DF91CF9108950C9466120C9448
:1011D0004B12EF92FF920F931F93772767FD709545
:1011E0000E94701D1F910F91FF90EF900895BA011A
:1011F000A9010C947B160C9430120C941512CF9309
:10120000DF93EC01E9D1E0910220F0910320CE01BF
:10121000DF91CF911994CF93DF93E0910420F09167
:10122000052060E870E081E090E01995EC010097FE
:1012300009F0CCD1CE01DF91CF9108950C94C91162
:101240000C94C511EF92FF920F931F93772767FDC0
:1012500070950E94EA151F910F91FF90EF900895ED
:10126000BA01A9010C948112CF93DF93EC010E9483
:10127000E246E0910220F0910320CE01DF91CF9170
:101280001994CF93DF93E0910420F09105206FE251
:1012900070E081E090E01995EC01009711F00E9458
:1012A000A246CE01DF91CF9108959A01AB0165E08E
:1012B0000C94A8469A01AB0162E00C94A846CF9327
:1012C000DF93EC010E941E24E0910220F0910320A4
:1012D000CE01DF91CF911994CF93DF93E091042059
:1012E000F091052061E771E081E090E01995EC0153
:1012F000009711F00E948520CE01DF91CF910895D3
:101300009A01AB0165E00C948E209A01AB0162E07A
:101310000C948E20CF93DF93EC010E94F324E09194
:101320000220F0910320CE01DF91CF911994CF9349
:10133000DF93E0910420F091052062E171E081E00B
:1013400090E01995EC01009711F00E94EA24CE017B
:10135000DF91CF9108950C94C32A0C940025CF926D
:10136000DF92EF92FF920F931F930E94632E1F91C3
:101370000F91FF90EF90DF90CF900895CF92DF9282
:10138000EF92FF920F931F93772767FD70950E944E
:10139000FD2D1F910F91FF90EF90DF90CF9008955A
:1013A000EF92FF920F931F93772767FD70950E942E
:1013B000682D1F910F91FF90EF900895772767FD9B
:1013C00070950C94D82BCF93DF93EC010E948C2F57
:1013D000E0910220F0910320CE01DF91CF9119948A
:1013E000CF93DF93E0910420F091052068E470E151
:1013F00081E090E01995EC01009711F00E94832F95
:10140000CE01DF91CF9108950C94992FCF92DF9266
:10141000EF92FF920F931F930E9485321F910F91BD
:10142000FF90EF90DF90CF900895CF92DF92EF92F0
:10143000FF920F931F93772767FD70950E941F32CD
:101440001F910F91FF90EF90DF90CF900895EF9252
:10145000FF920F931F93772767FD70950E948A3143
:101460001F910F91FF90EF900895772767FD70957A
:101470000C948A30CF93DF93EC010E94EB32E09121
:101480000220F0910320CE01DF91CF911994CF93E8
:10149000DF93E0910420F091052064E071E081E0A9
:1014A00090E01995EC01009711F00E94E232CE0114
:1014B000DF91CF9108959A0127703327232B51F4A0
:1014C00023E0569547952A95E1F70E94F83280E08F
:1014D00090E0089580E09FE908950C943533CF9310
:1014E000DF93EC010E944E36E0910220F091032040
:1014F000CE01DF91CF911994CF93DF93E091042037
:10150000F091052064E171E081E090E01995EC0133
:10151000009711F00E944536CE01DF91CF910895DA
:101520000C9472380C945B36CF92DF92EF92FF925C
:101530000F931F930E9446461F910F91FF90EF90CB
:10154000DF90CF900895CF92DF92EF92FF920F93AA
:101550001F93772767FD70950E94E2451F910F91B9
:10156000FF90EF90DF90CF900895EF92FF920F934E
:101570001F93772767FD70950E944C451F910F912F
:10158000FF90EF900895772767FD70950C94404584
:1015900080E090E008950895CF93DF93CDB7DEB754
:1015A00080E090E0DF91CF910895809300209093A8
:1015B000012080E090E00895680F791F8617970753
:1015C00021F0FC0110820196F9CF089520E8FC017A
:1015D00011922A95E9F70895009719F060E870E0F4
:1015E000EBCF089520E831E0FC01A90111924150B0
:1015F0005040E1F70895009719F060E871E0DCCF02
:1016000008952F923F924F925F926F927F928F92A6
:101610009F92AF92BF92CF92DF92EF92FF920F9381
:101620001F93CF93DF93CDB7DEB72A97CDBFDEBF31
:10163000FB012081418150E060E070E0BA01552754
:101640004427722B2381422B2281522BA4810581B6
:1016500010E020E030E09801112700273A2BA78105
:101660000A2BE6811E2B68017901E4E0F694E794E9
:10167000D794C794EA95D1F7C426D526E626F7264F
:10168000EFE0CE22DE22EE22FE224C255D256E25E5
:101690007F25F4E0CC0CDD1CEE1CFF1CFA95D1F785
:1016A000C026D126E226F3269701860104271527B6
:1016B000262737270071107120713071402751277C
:1016C00062277327C026D126E226F3268A019B01D2
:1016D000A5E13695279517950795AA95D1F70F702F
:1016E000112722273327F801EE0FFF1FEE0FFF1FF0
:1016F000E850F94D80809180A280B38015E0880C7D
:10170000991CAA1CBB1C1A95D1F7072F1127222759
:1017100033270F70112722273327F801EE0FFF1F01
:10172000EE0FFF1FE850F94D8A019B010F70112742
:1017300022273327D801AA0FBB1FAA0FBB1FA8500F
:10174000B94D0D911D912D913C91A3E0000F111FFA
:10175000221F331FAA95D1F7408051806280738089
:1017600004291529262937292A013B01BDE1769450
:10177000679457944794BA95D1F7F201EE0FFF1F83
:10178000EE0FFF1FE850F94D40805180628073805A
:10179000B4E0440C551C661C771CBA95D1F704299B
:1017A000152926293729452E562E672E7724FFE046
:1017B0004F22552466247724F201EE0FFF1FEE0F0F
:1017C000FF1FE850F94D4080518062807380B2E085
:1017D000440C551C661C771CBA95D1F704291529B1
:1017E000262937292B0166247724EFE04E22552441
:1017F00066247724F201EE0FFF1FEE0FFF1FE85063
:10180000F94D4080518062807380440C551C661CE9
:10181000771C04291529262937292A013B01E5E0EF
:101820007694679457944794EA95D1F7FFE04F2256
:10183000552466247724F201EE0FFF1FEE0FFF1FE1
:10184000E850F94D4080518062807380B7E0440CCD
:10185000551C661C771CBA95D1F704291529262931
:101860003729EDE07695679557954795EA95D1F735
:101870004F70552766277727FA01EE0FFF1FEE0FEF
:10188000FF1FE850F94D4081518162817381B6E0BC
:10189000440F551F661F771FBA95D1F7042B152BE0
:1018A000262B372B082919292A293B29B701A601FC
:1018B000E4E17695679557954795EA95D1F74F708E
:1018C000552766277727FA01EE0FFF1FEE0FFF1F40
:1018D000E854F94D80809180A280B380B5E0880CF7
:1018E000991CAA1CBB1CBA95D1F7B701A601ECE163
:1018F0007695679557954795EA95D1F7FA01EE0FDA
:10190000FF1FEE0FFF1FE854F94D408151816281A6
:101910007381B4E0440F551F661F771FBA95D1F746
:1019200026013701E9E17694679457944794EA9544
:10193000D1F7EFE04E22552466247724F201EE0F12
:10194000FF1FEE0FFF1FE854F94D40805180628069
:101950007380442955296629772926013701769411
:10196000679457944794FFE04F22552466247724C8
:10197000F201EE0FFF1FEE0FFF1FE854F94D4080FC
:10198000518062807380B3E0440C551C661C771C48
:10199000BA95D1F7442955296629772926013701B7
:1019A000E9E07694679457944794EA95D1F7EFE08D
:1019B0004E22552466247724F201EE0FFF1FEE0F0E
:1019C000FF1FE854F94D4080518062807380B2E07F
:1019D000440C551C661C771CBA95D1F7442955292F
:1019E0006629772926013701E1E1769467945794B7
:1019F0004794EA95D1F7FFE04F22552466247724D7
:101A0000F201EE0FFF1FEE0FFF1FE854F94D40806B
:101A1000518062807380440C551C661C771C4429DD
:101A200055296629772926013701E4E076946794E1
:101A300057944794EA95D1F7EFE04E225524662457
:101A40007724F201EE0FFF1FEE0FFF1FE854F94D50
:101A50004080518062807380B7E0440C551C661C46
:101A6000771CBA95D1F74429552966297729ECE0E6
:101A7000F694E794D794C794EA95D1F7FFE0CF2284
:101A8000DD24EE24FF24F601EE0FFF1FEE0FFF1FF3
:101A9000E854F94DC080D180E280F380B6E0CC0CF0
:101AA000DD1CEE1CFF1CBA95D1F74C295D296E296F
:101AB0007F29482959296A297B293F707F708987A6
:101AC0009A87212C312C82E02816310444F098E0CA
:101AD0002916310421F0EFE02E16310401F5D90169
:101AE000C801EBE1B695A79597958795EA95D1F74B
:101AF000000F111F221F331F082B192B2A2B3B2BE2
:101B00003F70DB01CA01EBE1B695A79597958795E4
:101B1000EA95D1F7440F551F661F771F25C0D901DD
:101B2000C801EAE1B695A79597958795EA95D1F70B
:101B3000F2E0000F111F221F331FFA95D1F7082B77
:101B4000192B2A2B3B2B3F70DB01CA01EAE1B6952A
:101B5000A79597958795EA95D1F7F2E0440F551F21
:101B6000661F771FFA95D1F7482B592B6A2B7B2BD1
:101B70007F70D901C801E4E0880F991FAA1FBB1F1D
:101B8000EA95D1F788279927AA27B47268017901C5
:101B9000FCE1CC0CDD1CEE1CFF1CFA95D1F7CC242B
:101BA000DD24EE24F0E1FF228C299D29AE29BF29F6
:101BB0006A017B01CC24E1E0DE22EE24FF248C29A3
:101BC0009D29AE29BF2968017901EEE0CC0CDD1C0E
:101BD000EE1CFF1CEA95D1F7CC24DD24EE24F8E0BE
:101BE000FF228C299D29AE29BF2968017901F2E1E4
:101BF000CC0CDD1CEE1CFF1CFA95D1F7CC24DD24A7
:101C0000E8E0EE22E2E0FE228C299D29AE29BF29E0
:101C100068017901E6E0CC0CDD1CEE1CFF1CEA95A6
:101C2000D1F7CC24DD24EE24F1E0FF228C299D297C
:101C3000AE29BF2968017901F9E0CC0CDD1CEE1C4E
:101C4000FF1CFA95D1F7CC24DD24E0E2EE22FF243C
:101C50008C299D29AE29BF2968017901F694E79462
:101C6000D794C794CC24DD24F0E1EF22FF248C2903
:101C70009D29AE29BF2928013901FAE0440C551CE1
:101C8000661C771CFA95D1F773016201CC24DD2420
:101C9000E4E0EE22FF248C299D29AE29BF296801AA
:101CA0007901E2E0CC0CDD1CEE1CFF1CEA95D1F7BB
:101CB000CC24DD24F2E0EF22FF248C299D29AE29DB
:101CC000BF2968017901FAE0F694E794D794C794A4
:101CD000FA95D1F7CC24DD24E1E0EE22FF248C2913
:101CE0009D29AE29BF296A017B01EDE0F694E794B6
:101CF000D794C794EA95D1F7CC24F0E2DF22EE2402
:101D0000FF248C299D29AE29BF296A017B01F4E0BB
:101D1000F694E794D794C794FA95D1F7CC24E0E1F0
:101D2000DE22EE24FF248C299D29AE29BF296A01D9
:101D30007B01E6E0CC0CDD1CEE1CFF1CEA95D1F724
:101D4000CC24F8E0DF22EE24FF248C299D29AE2943
:101D5000BF296A017B01F694E794D794C794CC24F9
:101D6000E4E0DE22EE24FF248C299D29AE29BF2940
:101D70006A017B01EEE0F694E794D794C794EA9564
:101D8000D1F7C982DA82EB82FC82CC24E2E0DE2247
:101D9000EE24FF248C299D29AE29BF296A017B01ED
:101DA000F5E0F694E794D794C794FA95D1F7F0E26A
:101DB000CF22DD24EE24FF248C299D29AE29BF29C2
:101DC0006A017B01EAE0F694E794D794C794EA9518
:101DD000D1F7E0E1CE22DD24EE24FF248C299D29D9
:101DE000AE29BF296A017B01F3E0F694E794D7940A
:101DF000C794FA95D1F7CD82DE82EF82F886E8E0CB
:101E0000CE22DD24EE24FF248C299D29AE29BF2972
:101E10006A017B01E2E1F694E794D794C794EA95CE
:101E2000D1F7F4E0CF22DD24EE24FF248C299D2974
:101E3000AE29BF296A017B01FAE1F694E794D794B1
:101E4000C794FA95D1F7E2E0CE22DD24EE24FF24F8
:101E50008C299D29AE29BF29C72EDD24EE24FF241D
:101E6000F1E0CF22DD24EE24FF248C299D29AE2928
:101E7000BF29E985FA8580839183A283B3834801D2
:101E80005901FFE0880C991CAA1CBB1CFA95D1F7DC
:101E9000D501C40188279927AA27B0726801790162
:101EA000E1E1CC0CDD1CEE1CFF1CEA95D1F7CC2443
:101EB000DD24EE24F0E1FF228C299D29AE29BF29E3
:101EC0006A017B01CC24E2E0DE22EE24FF248C298F
:101ED0009D29AE29BF29442455246624F8E07F2299
:101EE00084299529A629B72968017901F6E1CC0C46
:101EF000DD1CEE1CFF1CFA95D1F7CC24DD24EE246A
:101F0000E4E0FE228C299D29AE29BF2968017901D0
:101F1000E2E0F694E794D794C794EA95D1F7CC24FD
:101F2000DD24EE24F2E0FF228C299D29AE29BF2971
:101F300068017901CC0CDD1CEE1CFF1CCC24DD24D7
:101F4000EE24E1E0FE228C299D29AE29BF297801EB
:101F5000DD24CC24CC24DD24F0E2EF22FF248C29E4
:101F60009D29AE29BF2968017901FBE0CC0CDD1C5D
:101F7000EE1CFF1CFA95D1F7CC24DD24E0E1EE2223
:101F8000FF248C299D29AE29BF2968017901E3E04E
:101F9000CC0CDD1CEE1CFF1CEA95D1F7CC24DD2413
:101FA000F8E0EF22FF248C299D29AE29BF29680182
:101FB0007901F6E0F694E794D794C794FA95D1F7AF
:101FC000CC24DD24E4E0EE22FF248C299D29AE29D7
:101FD000BF2988249924F2E0AF22BB2488299929BB
:101FE000AA29BB2968017901E4E0F694E794D79423
:101FF000C794EA95D1F7CC24DD24E1E0EE22FF245A
:102000008C299D29AE29BF296A017B01F2E0F69453
:10201000E794D794C794FA95D1F7CC24F0E2DF2265
:10202000EE24FF248C299D29AE29BF29CC24D42E4F
:10203000E52EF62ECC24E0E1DE22EE24FF248C29CE
:102040009D29AE29BF29C980DA80EB80FC80F8E0A9
:10205000CF22DF22EE24FF248C299D29AE29BF291F
:102060006A017B01F9E0F694E794D794C794FA9556
:10207000D1F7CC24E4E0DE22EE24FF248C299D2934
:10208000AE29BF296A017B01E7E0CC0CDD1CEE1C08
:10209000FF1CEA95D1F7CC24F1E0DF22EE24FF24E7
:1020A0008C299D29AE29BF296A017B01F7E0F694AE
:1020B000E794D794C794FA95D1F7E0E2CE22DD24D5
:1020C000EE24FF248C299D29AE29BF29CD80DE80F6
:1020D000EF80F884F1E1CF22DD24EE24FF248C2967
:1020E0009D29AE29BF296A017B01E2E0CC0CDD1CF1
:1020F000EE1CFF1CEA95D1F7E4E0CE22DD24EE24AD
:10210000FF248C299D29AE29BF296A017B01F5E1B5
:10211000F694E794D794C794FA95D1F7F2E0CF22DA
:10212000DD24EE24FF248C299D29AE29BF29E985D1
:10213000FA8584839583A683B783FFEF2F1A3F0A1E
:1021400089859A85089689879A8790E129163104AE
:1021500009F0B9CC2A96CDBFDEBFDF91CF911F9198
:102160000F91FF90EF90DF90CF90BF90AF909F9036
:102170008F907F906F905F904F903F902F90089539
:10218000EF92FF920F931F93CF93DF938C01EB019C
:102190007A01BA0136DAB701685F7F4FCE01805805
:1021A0009F4F2FDA980128583F4FFE017E0148EFDC
:1021B000E40EF11CD80180E090E0E90148815981EA
:1021C0006A817B8140835183628373834C815D810B
:1021D0006E817F814483558366837783E7014881DD
:1021E00059816A817B818D0100581F4FE801488326
:1021F00059836A837B83E7014C815D816E817F8196
:102200000C5F1F4FE801488359836A837B834D919C
:102210005D916D917C91139704581F4FE80148839D
:1022200059836A837B8314964D915D916D917C9166
:1022300017970C5F1F4FE801488359836A837B839C
:1022400040815181628173818F011395E801488338
:1022500059836A837B8344815581668177810C5FD2
:102260001F4FE801488359836A837B830296285075
:1022700031093896D8E0ED1AF108189680329105A8
:1022800009F09BCFDF91CF911F910F91FF90EF90BD
:102290000895EF92FF920F931F93CF93DF93EC017A
:1022A0007B018A01BA01ADD9B801685F7F4FC701D0
:1022B00080589F4FA6D9B801605F7F4FCE0193959C
:1022C000A0D9DE01A858BE4FF701970128503F4F13
:1022D0007E0140E8E40EF11C80E090E04D915D91BC
:1022E0006D917C911397408351836283738314961D
:1022F0004D915D916D917C911797448355836683D1
:102300007783E901488159816A817B81E7014883AC
:1023100059836A837B83E9014C815D816E817F8172
:10232000E7014C835D836E837F83AD015A95EA019B
:10233000488159816A817B818F011395E801488327
:1023400059836A837B83AD014C5F5109EA0148815F
:1023500059816A817B810C5F1F4FE8014883598353
:102360006A837B8302961897389628503109D8E003
:10237000ED0EF11C8032910509F0B0CFDF91CF91C5
:102380001F910F91FF90EF9008953BD980E090E06E
:102390000895CF92DF92EF92FF920F931F93CF9306
:1023A000DF93D82FC92F2DD9ED2FFC2F9F01C8E027
:1023B000D0E0C080D180E280F380890108581F4FAF
:1023C000D8014D915D916D917C911397408351831C
:1023D00062837383CD92DD92ED92FC921397C48059
:1023E000D580E680F7800C5F1F4FD8014D915D913D
:1023F0006D917C9113974483558366837783CD9247
:10240000DD92ED92FC92139721973896285031096E
:10241000209779F680E090E0DF91CF911F910F91A6
:10242000FF90EF90DF90CF900895CF93DF93CDB7DB
:10243000DEB7C058D140CDBFDEBFAB01BE016F5F7C
:102440007F4F9EDE60E871E0CE010196B5D880E056
:1024500090E0C058DE4FCDBFDEBFDF91CF91089531
:10246000CF93DF93CDB7DEB7C058D140CDBFDEBF2D
:10247000AB01BC01CE01019683DE60E871E0CE01C4
:1024800001969AD880E090E0C058DE4FCDBFDEBF05
:10249000DF91CF910895CF93DF93CDB7DEB7C058CA
:1024A000D140CDBFDEBFAB01BE016F5F7F4FF1DE1C
:1024B00060E871E0CE0101967FD880E090E0C058DE
:1024C000DE4FCDBFDEBFDF91CF910895CF93DF9375
:1024D000CDB7DEB7C058D140CDBFDEBFAB01BC0128
:1024E000CE010196D6DE60E871E0CE01019664D897
:1024F00080E090E0C058DE4FCDBFDEBFDF91CF91CE
:1025000008952F923F924F925F926F927F928F9297
:102510009F92AF92BF92CF92DF92EF92FF920F9372
:102520001F93CF93DF93CDB7DEB72C97CDBFDEBF20
:10253000FB014A012081418150E060E070E0BA0176
:1025400055274427722B2381422B2281522BA481B1
:10255000058110E020E030E09801112700273A2B98
:10256000A7810A2BE6811E2B6A017B01E4E0F69429
:10257000E794D794C794EA95D1F7C026D126E226EE
:10258000F326AFE0CA22DA22EA22FA220C251D2520
:102590002E253F25F4E0CC0CDD1CEE1CFF1CFA952B
:1025A000D1F7C426D526E626F726A7016627772782
:1025B0004027512762277327662777272A013B0187
:1025C00040265126622673269A01112700270C25E2
:1025D0001D252E253F25B301A201E2E076956795E2
:1025E00057954795EA95D1F74027512762277327DA
:1025F0004373537363737373042715272627372791
:102600006A017B01F2E0CC0CDD1CEE1CFF1CFA958C
:10261000D1F7C424D524E624F72477276F2D5E2D27
:102620004D2D4027512762277327552777270427E9
:10263000152726273727762F652F542F44274C251B
:102640005D256E257F25440F551F661F771F411D91
:102650006A017B01C026D126E226F326BAEACB2204
:10266000DB22EB22FB224C255D256E257F252801F0
:1026700039014C245D246E247F24440C551C661CB7
:10268000771C411C49865A866B867C865C011C013E
:1026900000E8200E311CD5018D919D910D90BC91CB
:1026A000A02D84279527A627B7278D839E83AF83E8
:1026B000B8876A017B01A4E0F694E794D794C794A5
:1026C000AA95D1F7DB01CA011CE1880F991FAA1F47
:1026D000BB1F1A95D1F7C82AD92AEA2AFB2AF50185
:1026E00084819581A681B781C826D926EA26FB2652
:1026F000D701C6018F739927AA27BB27FC01EE0FCC
:10270000FF1FEE0FFF1FE85CF74D8D819E81AF81AB
:10271000B8858F739927AA27BB279C01220F331FE7
:10272000220F331F285C384D80819181A281B381B3
:10273000F901008111812281338180279127A2270D
:10274000B3274D805E806F807884452C562C672C93
:102750007724930182010F731127222733270983DE
:102760001A832B833C833801660C771C660C771C1C
:102770009301285C364DF90140805180628073805E
:1027800084259525A625B7250D811E812F813885A5
:102790002901662477241FE34122552466247724E7
:1027A000440C551C440C551C9201285C344DF90115
:1027B000408051806280738084259525A625B725A9
:1027C0000D811E812F813885432E55246624772460
:1027D0001FE34122552466247724F201EE0FFF1FE8
:1027E000EE0FFF1FE85CF24D4080518062807380E5
:1027F00084259525A625B7254D2C5E2C6F2C772496
:102800002FE34222552466247724F201EE0FFF1FA6
:10281000EE0FFF1FE85CF54D4080518062807380B1
:1028200084259525A625B7252701662477243FE32F
:102830004322552466247724F201EE0FFF1FEE0F8A
:10284000FF1FE85CF34D40805180628073808425D7
:102850009525A625B725CF2CDD24EE24FF24EFE314
:10286000CE22DD24EE24FF24F601EE0FFF1FEE0F33
:10287000FF1FE85CF14DC080D180E280F3808C25A1
:102880009D25AE25BF2549845A846B847C844826C7
:1028900059266A267B2649865A866B867C86D50110
:1028A0001896CD90DD90ED90FC901B97C424D52414
:1028B000E624F724D301C20134E0B695A795979595
:1028C00087953A95D1F7ECE1440C551C661C771CB2
:1028D000EA95D1F784299529A629B729F5014484D9
:1028E00055846684778484259525A625B7252601F9
:1028F0003701FFE34F22552466247724F201EE0FBF
:10290000FF1FEE0FFF1FE85CF84D40805180628092
:10291000738044255525662577254D2C5E2C6F2C1C
:1029200077240FE34022552466247724F201EE0F2A
:10293000FF1FEE0FFF1FE85CF64D40805180628064
:10294000738044255525662577252701662477243D
:102950001FE34122552466247724F201EE0FFF1F66
:10296000EE0FFF1FE85CF44D408051806280738061
:102970004425552566257725CF2CDD24EE24FF241C
:102980002FE3C222DD24EE24FF24F601EE0FFF1F09
:10299000EE0FFF1FE85CF24DC080D180E280F38033
:1029A0004C255D256E257F256C017D013FE3C3220B
:1029B000DD24EE24FF24F601EE0FFF1FEE0FFF1FB4
:1029C000E85CF74DC080D180E280F3804C255D2526
:1029D0006E257F25C92EDA2EEB2EFF24EFE3CE22C3
:1029E000DD24EE24FF24F601EE0FFF1FEE0FFF1F84
:1029F000E85CF54DC080D180E280F3804C255D25F8
:102A00006E257F256D01EE24FF24FFE3CF22DD2418
:102A1000EE24FF24F601EE0FFF1FEE0FFF1FE85C10
:102A2000F34DC080D180E280F3804C255D256E257A
:102A30007F258B2F9927AA27BB278F739927AA2732
:102A4000BB27FC01EE0FFF1FEE0FFF1FE85CF14DEF
:102A500080819181A281B381482759276A277B27EA
:102A600000E1A00EB11CA214B30409F014CE2A0197
:102A70003B0140FA779467945794479477F8898597
:102A80009A85AB85BC8584259525A625B7258A7AA8
:102A90009A7AAA7ABA7A482659266A267B2609851E
:102AA0001A852B853C85082719272A273B2700FBF9
:102AB000379527951795079537F9BB27A32F922FA1
:102AC000812F84259525A625B7259927BB2748263C
:102AD00059266A267B26CC24D82EE92EFA2EC0262B
:102AE000D126E226F326D701C60152E0B695A79576
:102AF000979587955A95D1F784259525A625B725CD
:102B000083739373A373B373482659266A267B266F
:102B1000AC01BD01E2E0440F551F661F771FEA9527
:102B2000D1F74C255D256E257F25C301AA27BB273C
:102B300084279527A627B727AA27BB2748275927E1
:102B40006A277B279C0111270027042515252625A8
:102B50003725D901C801E4E0B695A79597958795E3
:102B6000EA95D1F784279527A627B7278F709F70FE
:102B7000AF70BF70482759276A277B27F4E0880F7A
:102B8000991FAA1FBB1FFA95D1F780279127A2276B
:102B9000B327F401B083A183928383837483658315
:102BA0005683478380E090E02C96CDBFDEBFDF9157
:102BB000CF911F910F91FF90EF90DF90CF90BF903A
:102BC000AF909F908F907F906F905F904F903F90CD
:102BD0002F9008957F928F929F92AF92BF92CF9243
:102BE000DF92EF92FF920F931F93CF93DF93CDB7B6
:102BF000DEB72897CDBFDEBF5C016A01922E832E1F
:102C0000CA0187709927892B09F062C088E0782E65
:102C10006130710509F046C0C114D10419F480E097
:102C200090E058C09801692D782DD70180E090E0A0
:102C3000F90151919F01FB014191BF0145274D933E
:102C4000019688309105A1F7A701B701C50159DCAC
:102C5000F701A92DB82D872D01900D928A95E1F7E6
:102C6000085F1F4FF8E0EF0EF11C88E0C81AD1088A
:102C7000D3CF31912C9123272D9301968830910544
:102C8000C1F7FE013196A92DB82D872D01900D9227
:102C90008A95E1F7085F1F4FE8E0EE0EF11CF8E0BF
:102CA000CF1AD108C114D10409F4B9CFF801DE015B
:102CB0001196872D01900D928A95E1F7A701B80131
:102CC000C5011FDCE92DF82DD70180E090E0D1CFC0
:102CD0008EEC9FEF2896CDBFDEBFDF91CF911F9185
:102CE0000F91FF90EF90DF90CF90BF90AF909F90AB
:102CF0008F907F9008952F923F924F925F926F92A4
:102D00007F928F929F92AF92BF92CF92DF92EF927B
:102D1000FF920F931F93CF93DF9300D000D0CDB7D6
:102D2000DEB71C01FB0149835A832081818190E039
:102D3000A0E0B0E0DC0199278827B22B2381822B09
:102D40002281922B2481458150E060E070E0BA013D
:102D500055274427722B2781422B2681522B6C0149
:102D60007D0104E0F694E794D794C7940A95D1F7CF
:102D7000C426D526E626F7262FE0C222D222E2225A
:102D8000F2224C255D256E257F254601570124E062
:102D9000880C991CAA1CBB1C2A95D1F78826992659
:102DA000AA26BB26C501AA27BB2784279527A627C5
:102DB000B727AA27BB27482759276A277B277C01E3
:102DC000DD24CC24C824D924EA24FB24DB01CA0155
:102DD000F2E0B695A79597958795FA95D1F78C254A
:102DE0009D25AE25BF2583739373A373B373C82644
:102DF000D926EA26FB262C013D01A2E0440C551CF5
:102E0000661C771CAA95D1F7442655266626772698
:102E1000BB24A72C962C852C8C249D24AE24BF2467
:102E20009924BB24C824D924EA24FB24BA2CA92C35
:102E3000982C882484249524A624B724880C991CD3
:102E4000AA1CBB1C811CB501A4014C255D256E2567
:102E50007F254A7A5A7A6A7A7A7A84269526A6262D
:102E6000B7268A019B010C251D252E253F25000F25
:102E7000111F221F331F011DA10140585F4F4B83BB
:102E80005C832D823E82AD81BE81CD90DD90ED9040
:102E9000FC90C824D924EA24FB24B501A401E4E071
:102EA0007695679557954795EA95D1F7D501C40171
:102EB000FCE1880F991FAA1FBB1FFA95D1F7482B79
:102EC000592B6A2B7B2BED81FE8184819581A68114
:102ED000B781482759276A277B27DB01CA018F73EF
:102EE0009927AA27BB27DC01AA0FBB1FAA0FBB1F6C
:102EF000A85CB74D26013701FFE34F225524662415
:102F00007724F201EE0FFF1FEE0FFF1FE85CF84D74
:102F10008D919D910D90BC91A02D4080518062803B
:102F2000738084259525A625B7254D2C5E2C6F2C06
:102F30007724EFE34E22552466247724F201EE0F26
:102F4000FF1FEE0FFF1FE85CF64D4080518062804E
:102F5000738084259525A625B72527016624772427
:102F6000FFE34F22552466247724F201EE0FFF1F62
:102F7000EE0FFF1FE85CF44D40805180628073804B
:102F800084259525A625B725CF2CDD24EE24FF2406
:102F9000EFE3CE22DD24EE24FF24F601EE0FFF1F27
:102FA000EE0FFF1FE85CF24DC080D180E280F3801D
:102FB0008C259D25AE25BF25C52ED62EE72EFF24B8
:102FC000FFE3CF22DD24EE24FF24F601EE0FFF1FE6
:102FD000EE0FFF1FE85CF54DC080D180E280F380EA
:102FE0008C259D25AE25BF256B01EE24FF24EFE344
:102FF000CE22DD24EE24FF24F601EE0FFF1FEE0F9C
:10300000FF1FE85CF34DC080D180E280F3808C2507
:103010009D25AE25BF25472F5527662777274F7358
:10302000552766277727FA01EE0FFF1FEE0FFF1FC8
:10303000E85CF14D4081518162817381842795273D
:10304000A627B727082719272A273B27AD81BE8146
:1030500018964D915D916D917C911B97402751275A
:1030600062277327D901C801E4E0B695A795979523
:103070008795EA95D1F768017901FCE1CC0CDD1C5C
:10308000EE1CFF1CFA95D1F78C299D29AE29BF298A
:10309000ED81FE81C484D584E684F7848C259D254A
:1030A000AE25BF256A017B01FFE3CF22DD24EE249C
:1030B000FF24F601EE0FFF1FEE0FFF1FE85CF84D37
:1030C000C080D180E280F3808C249D24AE24BF2474
:1030D000C52ED62EE72EFF24EFE3CE22DD24EE24EC
:1030E000FF24F601EE0FFF1FEE0FFF1FE85CF64D09
:1030F000C080D180E280F3808C249D24AE24BF2444
:103100006B01EE24FF24FFE3CF22DD24EE24FF2415
:10311000F601EE0FFF1FEE0FFF1FE85CF44DC080BD
:10312000D180E280F3808C249D24AE24BF24472FDD
:103130005527662777274F73552766277727FA0184
:10314000EE0FFF1FEE0FFF1FE85CF24D4081518133
:103150006281738184269526A626B726AC01BD011F
:103160004F73552766277727FA01EE0FFF1FEE0FE3
:10317000FF1FE85CF74D4081518162817381842695
:103180009526A626B726492F5A2F6B2F77274F73E0
:10319000552766277727FA01EE0FFF1FEE0FFF1F57
:1031A000E85CF54D408151816281738184269526CA
:1031B000A626B726AD01662777274F7355276627C2
:1031C0007727FA01EE0FFF1FEE0FFF1FE85CF34DAC
:1031D000408151816281738184269526A626B72677
:1031E0008B2F9927AA27BB278F739927AA27BB273D
:1031F000FC01EE0FFF1FEE0FFF1FE85CF14D808119
:103200009181A281B38188269926AA26BB264D8169
:103210005E81405F5F4F4D835E838B819C81481749
:10322000590709F030CED101A058BF4FAD83BE83FE
:10323000F101F395EB83FC83AD81BE81CD90DD90F0
:10324000ED90FC90C026D126E226F326B901A80114
:10325000F4E07695679557954795FA95D1F7D9019A
:10326000C801ECE1880F991FAA1FBB1FEA95D1F78F
:10327000482B592B6A2B7B2BED81FE818481958114
:10328000A681B781482759276A277B27DB01CA0116
:103290008F739927AA27BB27DC01AA0FBB1FAA0F90
:1032A000BB1FA85CB74D26013701FFE34F22552411
:1032B00066247724F201EE0FFF1FEE0FFF1FE85C7C
:1032C000F84D8D919D910D90BC91A02D4080518025
:1032D0006280738084259525A625B7254D2C5E2C0C
:1032E0006F2C7724EFE34E22552466247724F201D5
:1032F000EE0FFF1FEE0FFF1FE85CF64D4080518080
:103300006280738084259525A625B725270166242C
:103310007724FFE34F22552466247724F201EE0F31
:10332000FF1FEE0FFF1FE85CF44D4080518062806C
:10333000738084259525A625B725CF2CDD24EE2482
:10334000FF24EFE3CE22DD24EE24FF24F601EE0F6E
:10335000FF1FEE0FFF1FE85CF24DC080D180E280BE
:10336000F3808C259D25AE25BF25C52ED62EE72EB4
:10337000FF24FFE3CF22DD24EE24FF24F601EE0F2D
:10338000FF1FEE0FFF1FE85CF54DC080D180E2808B
:10339000F3808C259D25AE25BF256B01EE24FF24EF
:1033A000EFE3CE22DD24EE24FF24F601EE0FFF1F13
:1033B000EE0FFF1FE85CF34DC080D180E280F38008
:1033C0008C259D25AE25BF25472F552766277727B6
:1033D0004F73552766277727FA01EE0FFF1FEE0F71
:1033E000FF1FE85CF14D4081518162817381842728
:1033F0009527A627B72788269926AA26BB26AD811A
:10340000BE8118964D915D916D917C911B974825D9
:1034100059256A257B25D501C401E4E0B695A79519
:1034200097958795EA95D1F775016401FCE1CC0C7D
:10343000DD1CEE1CFF1CFA95D1F78C299D29AE29C5
:10344000BF29ED81FE81C484D584E684F7848C2570
:103450009D25AE25BF256A017B01FFE3CF22DD2438
:10346000EE24FF24F601EE0FFF1FEE0FFF1FE85CB6
:10347000F84DC080D180E280F3800C251D252E25DB
:103480003F25C52ED62EE72EFF24EFE3CE22DD24E6
:10349000EE24FF24F601EE0FFF1FEE0FFF1FE85C86
:1034A000F64DC080D180E280F3800C251D252E25AD
:1034B0003F256B01EE24FF24FFE3CF22DD24EE2421
:1034C000FF24F601EE0FFF1FEE0FFF1FE85CF44D27
:1034D000C080D180E280F3800C251D252E253F255C
:1034E000472F5527662777274F7355276627772756
:1034F000FA01EE0FFF1FEE0FFF1FE85CF24D408157
:103500005181628173810427152726273727AC0153
:10351000BD014F73552766277727FA01EE0FFF1F6E
:10352000EE0FFF1FE85CF74D40815181628173818E
:103530000427152726273727492F5A2F6B2F772740
:103540004F73552766277727FA01EE0FFF1FEE0FFF
:10355000FF1FE85CF54D4081518162817381042732
:10356000152726273727AD01662777274F7355275D
:1035700066277727FA01EE0FFF1FEE0FFF1FE85CAB
:10358000F34D4081518162817381042715272627DD
:1035900037278B2F9927AA27BB278F739927AA270D
:1035A000BB27FC01EE0FFF1FEE0FFF1FE85CF14D84
:1035B00080819181A281B381082719272A273B277F
:1035C0004D815E81405F5F4F4D835E838B819C8127
:1035D0004817590709F030CED101B395AB83BC83AE
:1035E000B0E82B1ABEEF3B0AEB81FC81C080D18092
:1035F000E280F380C824D924EA24FB24B501A40185
:10360000A4E07695679557954795AA95D1F7D5018A
:10361000C401072E7CE1880F991FAA1FBB1F7A9552
:10362000D1F7702D482B592B6A2B7B2B84819581E8
:10363000A681B781482759276A277B27DB01CA0162
:103640008F739927AA27BB27DC01AA0FBB1FAA0FDC
:10365000BB1FA85CB74D26013701FFE34F2255245D
:1036600066247724440C551C440C551CC201885C0C
:10367000984D2C018D919D910D90BC91A02DF20142
:10368000408051806280738084259525A625B725CA
:103690004D2C5E2C6F2C7724FFE34F22552466249B
:1036A0007724440C551C440C551CF201E85CF64D83
:1036B000408051806280738084259525A625B7259A
:1036C000270166247724FFE34F22552466247724BC
:1036D000440C551C440C551CF201E85CF44D408030
:1036E00051806280738084259525A625B725CF2C2F
:1036F000DD24EE24FF24FFE3CF22DD24EE24FF248B
:10370000CC0CDD1CCC0CDD1CF601E85CF24DC0805D
:10371000D180E280F3808C259D25AE25BF25C52E66
:10372000D62EE72EFF24FFE3CF22DD24EE24FF2454
:10373000CC0CDD1CCC0CDD1CF601E85CF54DC0802A
:10374000D180E280F3808C259D25AE25BF256B01BD
:10375000EE24FF24FFE3CF22DD24EE24FF24CC0C53
:10376000DD1CCC0CDD1CF601E85CF34DC080D18083
:10377000E280F3808C259D25AE25BF25472F552758
:10378000662777274F73552766277727440F551FDE
:10379000440F551F485C514DFA01408151816281AF
:1037A000738184279527A627B727082719272A2753
:1037B0003B27AB81BC811896CD90DD90ED90FC90BD
:1037C0001B97C026D126E226F326D901C80144E082
:1037D000B695A795979587954A95D1F7B901A80110
:1037E000ECE1440F551F661F771FEA95D1F7842B34
:1037F000952BA62BB72BEB81FC81448555856685DF
:10380000778584279527A627B727B701A6014F7389
:10381000552766277727440F551F440F551F485CCF
:10382000584DFA0140815181628173818426952629
:10383000A626B72677276F2D5E2D4D2D4F73552762
:1038400066277727440F551F440F551F485C564D78
:10385000FA01408151816281738184269526A626D2
:10386000B726A701662777274F735527662777273F
:10387000440F551F440F551F485C544DFA014081B9
:1038800051816281738184269526A626B726CF2C86
:10389000DD24EE24FF24FFE3CF22DD24EE24FF24E9
:1038A000A601440F551F440F551F485C524DFA01A5
:1038B000408151816281738184269526A626B72690
:1038C000AC01BD014F73552766277727440F551F5D
:1038D000440F551F485C574DFA0140815181628168
:1038E000738184269526A626B726492F5A2F6B2F3B
:1038F00077274F73552766277727440F551F440FA7
:10390000551F485C554DFA01408151816281738198
:1039100084269526A626B726AD01662777274F73FE
:10392000552766277727440F551F440F551F485CBE
:10393000534DFA014081518162817381842695261D
:10394000A626B7268B2F9927AA27BB278F739927DF
:10395000AA27BB27DC01AA0FBB1FAA0FBB1FA85CAD
:10396000B14D8D919D910D90BC91A02D88269926E9
:10397000AA26BB264B815C81405F5F4F4B835C83F3
:103980004215530509F030CE80FAB794A794979466
:103990008794B7F8B501A401402751276227732700
:1039A0004A7A5A7A6A7A7A7A84269526A626B72699
:1039B000402751276227732740FB779567955795D6
:1039C000479577F9BB27A72F962F852F882599250F
:1039D000AA25BB259927BB2788269926AA26BB2678
:1039E000CC24D82EE92EFA2EC426D526E626F72694
:1039F000D701C60132E0B695A795979587953A9578
:103A0000D1F788259925AA25BB2583739373A373C2
:103A1000B37388269926AA26BB26AC01BD01E2E035
:103A2000440F551F661F771FEA95D1F74C255D257A
:103A30006E257F25C501AA27BB2784279527A627A2
:103A4000B727AA27BB27482759276A277B277C0146
:103A5000DD24CC24C824D924EA24FB24D701C601C0
:103A600004E0B695A795979587950A95D1F7842791
:103A70009527A627B7278F709F70AF70BF70482714
:103A800059276A277B2724E0880F991FAA1FBB1F8D
:103A90002A95D1F78C259D25AE25BF25E981FA8190
:103AA000B083A18392838383748365835683478322
:103AB00080E090E02696CDBFDEBFDF91CF911F91D1
:103AC0000F91FF90EF90DF90CF90BF90AF909F90BD
:103AD0008F907F906F905F904F903F902F900895C0
:103AE0007F928F929F92AF92BF92CF92DF92EF928E
:103AF000FF920F931F93CF93DF93CDB7DEB7289735
:103B0000CDBFDEBF5C016A01922E832ECA01877091
:103B10009927892B09F062C088E0782E6130710501
:103B200009F046C0C114D10419F480E090E058C0F7
:103B30009801692D782DD70180E090E0F90151912D
:103B40009F01FB014191BF0145274D9301968830AC
:103B50009105A1F7A701B701C501CDD8F701A92D9E
:103B6000B82D872D01900D928A95E1F7085F1F4FC0
:103B7000F8E0EF0EF11C88E0C81AD108D3CF3191DC
:103B80002C9123272D93019688309105C1F7FE01D2
:103B90003196A92DB82D872D01900D928A95E1F7C8
:103BA000085F1F4FE8E0EE0EF11CF8E0CF1AD108D5
:103BB000C114D10409F4B9CFF801DE011196872DA3
:103BC00001900D928A95E1F7A701B801C50193D83C
:103BD000E92DF82DD70180E090E0D1CF8EEC9FEF5A
:103BE0002896CDBFDEBFDF91CF911F910F91FF903F
:103BF000EF90DF90CF90BF90AF909F908F907F908D
:103C000008952F923F924F925F926F927F928F9280
:103C10009F92AF92BF92CF92DF92EF92FF920F935B
:103C20001F93CF93DF93CDB7DEB76197CDBFDEBFD4
:103C30008D839E8369877A873A01DB011F968C9179
:103C40008F70AD81BE81E8E08E9FA00DB11D112463
:103C5000FD01E155FF4F10811F87E180F280138144
:103C60002481298B358026803781388BCD018F9632
:103C70009F964C90DC0111965C9011971296BC9126
:103C8000B983FC0183809480A580F681DC011796BE
:103C9000CC90AFE0B0E0AB83BC8389859A85AB81E3
:103CA000BC818A0F9B1FDC018C91B82FBF70BB8732
:103CB00082958F708C87AB81BC811F9709F49BC064
:103CC00092014981582D692D7A2D8F2F9C2D04E06A
:103CD0000E94254929833F834A015B016C012F859E
:103CE0003E2D4F2D512F6989732D822D98890CE31C
:103CF0000E940A49B981B22BB983EF81E32BEF838C
:103D0000842A952AA62AB72AC82AD92A2F853E2D81
:103D10004F2D512F6989732D822D988904E00E94BF
:103D20002549322EE32EB42FA52FF62E172F582E0D
:103D30009887042D0F7028E0029FF0011124E85CA1
:103D4000F04D20813181428153816481758186816A
:103D5000978100E30E940A4923253E254B275A27D5
:103D60006F2571275826A885A927A887ED81FE8190
:103D70001B8508E0109FE00DF11D1124ED87FE87E3
:103D8000E155FF4FA081A227AF87E180E326F280B3
:103D9000F42613811527B481B627B98B35803726D1
:103DA00026802524A781B885AB27A88B8D859E8585
:103DB0008F96ED85FE8547A4F9814F26DC0111968B
:103DC0005C90BF815B26FC01F281F825F983DC0160
:103DD00013968C901397892414969C9014979A2488
:103DE0001596AC901597AB241696FC911697FC256A
:103DF0001796CC90CD2492014981582D692D7A2DAA
:103E00008F2F9C2D04E00E942549522E832E942E44
:103E1000A52EB62E7F836C012F853E2D4F2D512F61
:103E20006989732D822D98890CE30E940A49522AD0
:103E3000832A942AA52AB62ABF81B72BBF83C82A12
:103E4000D92A2F853E2D4F2D512F6989732D822D13
:103E5000988904E00E942549ED81FE811C8508E0D7
:103E6000109FE00DF11D1124E983FA83DF01A155B4
:103E7000BF4FEC91E227EF871196EC901197E32664
:103E80001296FC901297F42613961C9113971527FF
:103E90001496FC911497F627F98B15963C9015977C
:103EA000372616962C90169728261796EC91E92718
:103EB000842D8F70F8E08F9FD0011124A85CB04D45
:103EC0002C9111963C91119712964C911297139642
:103ED0005C91139714966C91149715967C91159795
:103EE00016968C91169717969C9100E30E940A49AA
:103EF000AF85A227AF87E326F4261527B989B62711
:103F0000B98B37262826E927E88B89819A818F96F5
:103F1000E981FA8147A44524DC0111965C90119750
:103F200058241296BC91B925B983FC0183808A2458
:103F300094809B24A580FF81AF26DC011696FC911E
:103F40001697FC251796CC90CD24AB81BC81119798
:103F5000AB83BC83119609F0A0CE2F853E2D4F2D4B
:103F6000512F6989732D822D988908E30E94254974
:103F7000D3012C932F853E2D4F2D512F6989732D01
:103F8000822D988900E30E94254911962C93119760
:103F90002F853E2D4F2D512F6989732D822D9889A4
:103FA00008E20E94254912962C9312972F853E2DE8
:103FB0004F2D512F6989732D822D988900E20E941F
:103FC000254913962C9313972F853E2D4F2D512F56
:103FD0006989732D822D988908E10E9425491496DC
:103FE0002C9314972F853E2D4F2D512F6989732DBA
:103FF000822D988900E10E94254915962C931597EA
:104000002F853E2D4F2D512F6989732D822D988933
:1040100008E00E94254916962C931697EF8517966F
:10402000EC93179792014981582D692D7A2D8F2F86
:104030009C2D08E30E94254918962C93189792010D
:104040004981582D692D7A2D8F2F9C2D00E30E94D8
:10405000254919962C93199792014981582D692D5C
:104060007A2D8F2F9C2D08E20E9425491A962C93B9
:104070001A9792014981582D692D7A2D8F2F9C2DE9
:1040800000E20E9425491B962C931B9792014981BF
:10409000582D692D7A2D8F2F9C2D08E10E942549DE
:1040A0001C962C931C9792014981582D692D7A2DCD
:1040B0008F2F9C2D00E10E9425491D962C931D9762
:1040C00092014981582D692D7A2D8F2F9C2D08E062
:1040D0000E9425491E962C931E971F964C9261961E
:1040E000CDBFDEBFDF91CF911F910F91FF90EF9079
:1040F000DF90CF90BF90AF909F908F907F906F9008
:104100005F904F903F902F90089521E731E0FC01A0
:10411000A901119241505040E1F708952F923F922A
:104120004F925F926F927F928F929F92AF92BF92C7
:10413000CF92DF92EF92FF920F931F93CF93DF9373
:10414000CDB7DEB7AA97CDBFDEBF1C01862F6A01AF
:10415000790141E0B9010E9463068C01009709F4DE
:1041600050C2DC011A968D919C911B97409709F0E3
:1041700048C2C1010E948006B801C1010E9497088F
:10418000009709F040C221E0A701B601C1010E94D9
:104190009D06009709F037C2198A1A8ABE016F5F1F
:1041A0007F4F80E1FB0111928A95E9F78E010F5E46
:1041B0001F4F9B0140E150E0C1010E94D2060097D1
:1041C00009F021C289818A80912CA12CB12C540143
:1041D00099248824B82A8C81882A8B81982A940172
:1041E000A50160E070E080E090E000E20E940A49F2
:1041F0002B8B732E642E552EF62FE72F4D810E81BB
:1042000010E020E030E0980111270027342B48858A
:10421000042B4F81142BAB89A02BAB8B712A622A04
:10422000532AFB8FEC8F482E9D8F8985AA844A2DB7
:1042300050E060E070E0BA0155274427782B8C8568
:10424000482B8B85582B4A015B019401A50160E046
:1042500070E080E090E000E20E940A49F901DA0192
:104260006E8F78A34D850E8510E020E030E0980138
:1042700011270027342B4889042B4F85142B8E2EB1
:10428000802A9F2E912AAA2EA22ABB2EB32ACE8C38
:10429000D8A07C01F101E159FF4F80829182A28276
:1042A000B382C482D58286839783E058FF4FBB894F
:1042B000B0837182628253822B8D24833C8D35833F
:1042C00046824D8D4783E054F1091082118212829B
:1042D00013821482158216821782D1019F961C9236
:1042E0009F97D0961C92D097D1961C92D197D29638
:1042F0001C92D297D3961C92D397D4961C92D497A3
:10430000D5961C92D597D6961C92E3E0F0E0E8A3F0
:10431000F9A3E4E0F0E0EE8FFF8FA5019401217096
:1043200033274427552760E070E080E091EE0E943B
:10433000CA486BA37CA38DA39EA39401A501B601DB
:10434000C70101E00E9425492AA33FA348A7152FD2
:10435000B62FA72FF82FE92F2B89372D462D552D56
:104360006B8D7C8D842D9D8D0FE30E940A498AA060
:10437000822A9FA0932AA8A4A42AB12EB52ACB2EC4
:10438000C62ADA2ED72AEF2EE82AFE2EF92A2B8902
:10439000372D462D552D6B8D7C8D842D9D8D01E007
:1043A0000E9425492AA3132FB42FA52FF62FE72FFC
:1043B000482E9D8F4BA15CA16DA17EA19A01AB01FE
:1043C00060E070E0CB013C8B4D8B5E8B6F8B788F08
:1043D000898F9A8F60E070E080E090E000E20E94B8
:1043E0000A49732E642E552E5AA125272B8B712630
:1043F0006B265A266F276B8F7E277C8F4826ED8D84
:10440000E927ED8FEE8DFF8D33E0EE0FFF1F3A951C
:10441000E1F7E20DF31DDF019F9687A611969C92AE
:1044200011971296AC9212971396BC92139714960A
:10443000CC9214971596DC9215971696EC921697D7
:104440001796FC92E155FF4F20837182628253825E
:104450006483758346822D8D2783EE8DFF8DF595C0
:10446000E795EE8FFF8FE8A1F9A13197E8A3F9A3B3
:10447000EF2B09F052CF23E0C22ED12C22E030E006
:10448000D90193E0AA0FBB1F9A95E1F78D01015D59
:104490001F4F020D131D7D01FFEAEF0EF11CE20C10
:1044A000F31CA20DB31DFD01E155FF4F80809180EB
:1044B000A280B38074806580568047814B8BE05822
:1044C000F1099F965C915B8F61816C8F72817D8F0A
:1044D00083818E8F948198A3A581ABA3B681BAA363
:1044E00047814FA3F10140E050E061E070E0485F98
:1044F0005F4FC701840F951F89A79AA7CF018954E1
:104500009F4FDC014C904824A9A5BAA54C92DC0130
:1045100011964C904924A9A5BAA511964C92DC019C
:1045200012964C904A24A9A5BAA512964C92DC0189
:1045300013964C904B24A9A5BAA513964C92DC0176
:1045400014964C904724A9A5BAA514964C92DC0168
:1045500015964C904624A9A5BAA515964C92DC0157
:1045600016964C904524A9A5BAA516964C92DC0146
:1045700017968C91BB898B27A9A5BAA517968C9302
:10458000D801A40FB51F87A99B8D89278C9380AD77
:104590009C8D892711968C93119781AD9D8D8927CC
:1045A00012968C93129782AD9E8D892713968C93C9
:1045B000139783AD98A1892714968C93149784AD93
:1045C0009BA1892715968C93159785AD9AA189276C
:1045D00016968C93169786AD9FA1892717968C9374
:1045E0006F5F7F4F3896621773070CF480CF220FEE
:1045F000331FA1E0CA1AD10809F042CF80E090E051
:1046000002C08CEE9FEFAA96CDBFDEBFDF91CF91A7
:104610001F910F91FF90EF90DF90CF90BF90AF90E0
:104620009F908F907F906F905F904F903F902F90D2
:1046300008952F923F924F925F926F927F928F9246
:104640009F92AF92BF92CF92DF92EF92FF920F9321
:104650001F93CF93DF93CDB7DEB7A097CDBFDEBF5B
:104660001C012B014B8B5C8B2D8B3E8B198A1A8A7C
:104670004217530738F4C901841B950B8617970717
:1046800008F4C4C0F101E15DFE4F1081198F218152
:104690002A8F32813B8F83818C8F94819D8F1581EE
:1046A0001E8F26812F8F378138A3920140E050E082
:1046B00060E070E080E090E0A98CBA8CCB8CDC8C60
:1046C000ED8CF12E0F8D18A10E94414939014A014C
:1046D000B62FA72F8F8B988F0E944A4908F496C057
:1046E000203E1FEF3107410713E0510761057105B7
:1046F0008105910511F008F089C060827182828283
:104700009382B483A58386839783310181EB681AF2
:104710008EEF780AFE0131966F015101F1E9AF1A6F
:10472000FEEFBF0A410111EA811A1EEF910A4114FE
:10473000510409F468C0720121E14216510418F0D5
:1047400070E1E72EF12C910180E190E00197F901F1
:10475000E25AFE4F40814F5F4083411105C0215016
:1047600031098C30910591F78E010F5E1F4F960134
:1047700040E150E0B301C1010E94D206009709F068
:1047800047C08601AB89BC892D893E89C101F501ED
:1047900040815181452B41F4AC01415A5E4FFA01F1
:1047A00060817C9167276083F80141918F016D9151
:1047B0006427F90161939F01F501408151814130E6
:1047C000510539F4AC01415A5E4FFA0170817627E8
:1047D00070830196A8014C195D094E155F05B8F26A
:1047E000A401B401C1010DDA4E185F082B893C8980
:1047F0002E0D3F1D2B8B3C8B8D899E898E0D9F1D11
:104800008D8B9E8B94CF80E090E002C08CEE9FEF6A
:10481000A096CDBFDEBFDF91CF911F910F91FF908A
:10482000EF90DF90CF90BF90AF909F908F907F9050
:104830006F905F904F903F902F900895CF93DF93AC
:10484000EC010E948006CE018F589E4FC817D907F1
:1048500019F018822196FACFDF91CF9108958F92A7
:104860009F92AF92BF92CF92DF92EF92FF920F93FF
:104870001F93CF93DF93FA01DC018D909D90AD9053
:10488000BC901397EB01088119812A813B81802616
:104890009126A226B3261496CD90DD90ED90FC9043
:1048A00017978C819D81AE81BF81C826D926EA26C3
:1048B000FB26892D90E0DC01A056BE4C4C918B2D3F
:1048C0009927AA27BB27DC01A056BC4C0C9110E00D
:1048D00020E030E0302F222711270027D501C40126
:1048E0009927AA27BB27DC01A056BF4C8C91082B27
:1048F0008A2D90E0DC01A056BD4C8C91282B142B06
:104900008D2D90E0DC01A056BF4C4C918F2D992746
:10491000AA27BB27DC01A056BD4C8C9190E0A0E0FB
:10492000B0E0B82FAA279927882746015701992474
:10493000AA24BB24E401C056DC4C5881852BCE2C24
:10494000D12CE601C056DE4C5881A52B942B982E15
:10495000A92EBA2E8B2E80269126A226B32674016C
:104960006501C826D926EA26FB263C2D0D2D1E2DD5
:104970002F2D082519252A253B2580819181A2818B
:10498000B3818C259D25AE25BF25F02EC12ED22EBC
:10499000E32E8C259D25AE25BF2580839183A283A0
:1049A000B38384819581A681B78180279127A2272F
:1049B000B32784839583A683B783DF91CF911F911B
:1049C0000F91FF90EF90DF90CF90BF90AF909F90AE
:1049D0008F90089522E131E0FC01A901119241502C
:1049E0005040E1F70895009751F09C012E5E3E4F34
:1049F0008217930721F0FC0110820196F9CF0895E8
:104A00002F923F924F925F926F927F928F929F92DE
:104A1000AF92BF92CF92DF92EF92FF920F931F93CC
:104A2000CF93DF93CDB7DEB7C450D140CDBFDEBF4B
:104A30007A016C0112E0C10ED11C1E0121E9220E87
:104A4000311C20E4D1011D922A95E9F720E131E0E3
:104A5000F601A901119241505040E1F750ECE516E2
:104A6000F10489F0E114A1E0FA0669F0B0E8EB1670
:104A7000F10409F06FC523E030E0FC0120833183AD
:104A8000812C912C08C024E030E0DC012D933C9374
:104A900088248394912CDB019101C70113E0969542
:104AA00087951A95E1F7820D931D2817390729F08C
:104AB0004D91F90141939F01F8CFF0ECEF16F1040D
:104AC00051F0CE018F529F4FE7EAF4E39C01205D45
:104AD0003F4F5C0110C0C1014096D1015896910131
:104AE000205E3F4FFC014191CF0140954D93A217AD
:104AF000B307C1F7E6CFAF0147505109DA016C9116
:104B00004F5F5F4FDA014C90512C612C712C3201B8
:104B100055244424762A4E5F5F4FDA014C91442A93
:104B2000AF0145505109DA014C91542ADC014D92F4
:104B30005D926D927C921397AF0143505109DA0157
:104B40006C914F5F5F4FDA014C90512C612C712CAE
:104B5000320155244424762A4081442AAF01415031
:104B60005109DA014C91542ADC0114964D925D9260
:104B70006D927C921797089638968217930709F0E2
:104B8000BACF8E010F5A1F4F80E4F80111928A9517
:104B9000E9F7F1013396C101839628019F01235063
:104BA0003109D9017C902F5F3F4FD9014C9150E0E2
:104BB00060E070E0BA015527442777292081422B15
:104BC0009F0121503109D9012C91522BD2014D93D3
:104BD0005D936D937D932D013496E817F907F1F6F7
:104BE0009801205F3F4FF80141915191619171917E
:104BF00084859585A685B78584279527A627B72719
:104C0000848F958FA68FB78FE217F30769F7380166
:104C1000B8E26B0E711CA301B5012801E0E24E0E53
:104C2000511CC2011CDEA201B501685F7F4FC301A8
:104C300016DEF201C801C096D8014D905D906D90CE
:104C40007D9040815181628173814425552566257F
:104C500077254193519361937193E817F90769F7A9
:104C60002801F0E24F0E511C380128E2620E711C3F
:104C7000A301B501605F7F4FC201F1DDA201B50163
:104C8000685E7F4FC301EBDD31E8E316F10448F1C4
:104C9000F80170964191519161917191848595854A
:104CA000A685B78584279527A627B727848F958F54
:104CB000A68FB78FE415F50569F7B501605E7F4FE4
:104CC000280148E3440E511CA201380180E3680E1C
:104CD000711CC301C4DDB501685D7F4FA301C20132
:104CE000BEDDF80180819181A281B38189839A839D
:104CF000AB83BC8384819581A681B7818D839E839C
:104D0000AF83B88780859185A285B38589879A8787
:104D1000AB87BC8784859585A685B7858D879E875B
:104D2000AF87B88B940184E0220F331F8A95E1F797
:104D300020583F4CCF5FDE4F28833983C150D1408C
:104D4000FE0131966FE070E040E050E090E2A92E65
:104D5000B12CCF5FDE4FA881B981C150D140A40FE3
:104D6000B51F2C91222309F484C09B012F71332796
:104D70001501221A330A4D805E806F807884022CE0
:104D800004C076946794579447940A94D2F7898123
:104D90009A81AB81BC81022E04C0880F991FAA1F83
:104DA000BB1F0A94D2F7482659266A267B26408ADA
:104DB000518A628A738A49845A846B847C84022C67
:104DC00004C076946794579447940A94D2F78D81DF
:104DD0009E81AF81B885022E04C0880F991FAA1F3B
:104DE000BB1F0A94D2F7482659266A267B26448A96
:104DF000558A668A778A4D845E846F847888022C0F
:104E000004C076946794579447940A94D2F789859E
:104E10009A85AB85BC85022E04C0880F991FAA1FF6
:104E2000BB1F0A94D2F7482659266A267B26408E55
:104E3000518E628E738E49805A806B807C8004C054
:104E400076946794579447942A94D2F78D859E85DB
:104E5000AF85B88904C0880F991FAA1FBB1F2A9568
:104E6000D2F7482659266A267B26448E558E668EB2
:104E7000778E4F5F5F4F615F7F4F70964430510573
:104E800009F067CF40E5489D1001499D300C112481
:104E9000A1014052504D1A01FE01319640E050E010
:104EA000D101A40FB51F6C916F3F79F04080518004
:104EB00062807380D60184E06802A00DB11D1124C8
:104EC0004D925D926D927C9213974F5F5F4F349637
:104ED0004431510529F791E8E916F104D0F5E5963A
:104EE0004CAD5DAD6EAD7FADE59749835A836B8365
:104EF0007C83E9964CAD5DAD6EAD7FADE9974D839A
:104F00005E836F837887ED964CAD5DAD6EAD7FAD02
:104F1000ED9749875A876B877C87C358DF4F488155
:104F200059816A817B81CD57D0404D875E876F87DD
:104F3000788BFE013196AFE0B0E0CD5FDE4FA88305
:104F4000B983C350D14061E070E0B0E2AB2EB12C28
:104F5000FCC0F801408951896289738949835A8369
:104F60006B837C8344895589668977894D835E8309
:104F70006F837887408D518D628D738D49875A87F5
:104F80006B877C87448D558D668D778D4D875E87C9
:104F90006F87788BFE0131962FE030E0CD5FDE4FDA
:104FA00028833983C350D14061E070E080E290E013
:104FB000CF5FDE4F48815981C150D140460F571F06
:104FC000DA0113964C91442309F489C0CD5FDE4F7A
:104FD00048815981C350D1404F7155275C01A41AB3
:104FE000B50A4D805E806F8078840A2C04C0769468
:104FF0006794579447940A94D2F709811A812B81B8
:105000003C81042E04C0000F111F221F331F0A947D
:10501000D2F74026512662267326408A518A628A38
:10502000738A49845A846B847C840A2C04C07694E5
:105030006794579447940A94D2F70D811E812F816B
:105040003885042E04C0000F111F221F331F0A943D
:10505000D2F74026512662267326448A558A668AEC
:10506000778A4D845E846F8478880A2C04C0769495
:105070006794579447940A94D2F709851A852B852B
:105080003C85042E04C0000F111F221F331F0A94F9
:10509000D2F74026512662267326408E518E628EAC
:1050A000738E49805A806B807C8004C076946794AC
:1050B00057944794AA94D2F70D851E852F85388979
:1050C00004C0000F111F221F331F4A95D2F740263C
:1050D000512662267326448E558E668E778E6F5FBC
:1050E0007F4FCD5FDE4F28813981C350D140215F92
:1050F0003F4FCD5FDE4F28833983C350D140709638
:105100006530710509F054CFFE01319640E050E062
:10511000D101A40FB51F54966C916F3F79F0408078
:10512000518062807380D60134E06302A00DB11D0E
:1051300011244D925D926D927C9213974F5F5F4F59
:1051400034964431510521F7CACECF5FDE4F4881F6
:105150005981C150D140460F571FDA0117964C9123
:10516000442309F489C0CD5FDE4F48815981C35083
:10517000D1404F715527C501841B950B4D805E8032
:105180006F807884082E04C076946794579447946F
:105190000A94D2F709811A812B813C81042E04C024
:1051A000000F111F221F331F0A94D2F740265126E9
:1051B00062267326408A518A628A738A49845A8495
:1051C0006B847C84082E04C076946794579447942B
:1051D0000A94D2F70D811E812F813885042E04C0D8
:1051E000000F111F221F331F0A94D2F740265126A9
:1051F00062267326448A558A668A778A4D845E843D
:105200006F847888082E04C07694679457944794E6
:105210000A94D2F709851A852B853C85042E04C093
:10522000000F111F221F331F0A94D2F74026512668
:1052300062267326408E518E628E738E49805A800C
:105240006B807C8004C076946794579447948A95C9
:10525000D2F70D851E852F85388904C0000F111FD8
:10526000221F331F4A95D2F7402651266226732605
:10527000448E558E668E778E6F5F7F4FCD5FDE4F8B
:1052800028813981C350D140215F3F4FCD5FDE4F30
:1052900028833983C350D14070966530710509F079
:1052A00054CFFE01319640E050E0D101A40FB51F6C
:1052B00098966C916F3F79F0408051806280738046
:1052C000D60134E06302A00DB11D11244D925D9210
:1052D0006D927C9213974F5F5F4F34964431510526
:1052E00021F741E8E416F104C8F484E1889DF00157
:1052F000899DF00D1124E854F04D8CE0889D9001BB
:10530000899D300D1124220F331F220F331F2C0DC6
:105310003D1D60E070E040E050E0F7C0CF57DF4F48
:10532000488159816A817B81C158D04049835A8321
:105330006B837C83CB57DF4F488159816A817B81A6
:10534000C558D0404D835E836F837887C757DF4F42
:10535000488159816A817B81C958D04049875A87E1
:105360006B877C87C357DF4F488159816A817B8176
:10537000CD58D0404D875E876F87788BFE01319680
:105380007FE0A72EB12C61E070E080E290E0CF5F7B
:10539000DE4F48815981C150D140460F571FDA0175
:1053A0001B964C91442309F484C0A5014F715527E5
:1053B0009C01241B350B4D805E806F807884022E0B
:1053C00004C076946794579447940A94D2F7E9807E
:1053D000FA800B811C81042E04C0EE0CFF1C001F00
:1053E000111F0A94D2F74E245F2460267126408A4A
:1053F000518A628A738A49845A846B847C84022E1F
:1054000004C076946794579447940A94D2F7ED8039
:10541000FE800F811885042E04C0EE0CFF1C001FB7
:10542000111F0A94D2F74E245F2460267126448A05
:10543000558A668A778A4D845E846F847888022EC6
:1054400004C076946794579447940A94D2F7E984F9
:10545000FA840B851C85042E04C0EE0CFF1C001F73
:10546000111F0A94D2F74E245F2460267126408EC5
:10547000518E628E738E49805A806B807C8004C00E
:1054800076946794579447942A95D2F7ED84FE84D6
:105490000F85188904C0EE0CFF1C001F111F4A95D0
:1054A000D2F74E245F2460267126448E558E668E78
:1054B000778E6F5F7F4FBFE0AB0EB11C709665308B
:1054C000710509F064CFFE01319640E050E0D10152
:1054D000A40FB51FDC966C916F3F81F04080518026
:1054E00062807380960184E06802200D311D1124D2
:1054F000D9014D925D926D927C9213974F5F5F4FF1
:1055000034964431510519F7F0CEDF01A40FB51FD1
:105510008C918F3FA9F0D60114E08102A00DB11D3E
:1055200011248D909D90AD90BC908901060F171F9E
:1055300000581F4FD8018D929D92AD92BC92139747
:105540004F5F5F4F6C5F7F4F44315105F1F680E054
:1055500090E002C08CED9FEFCC5FDE4FCDBFDEBF91
:10556000DF91CF911F910F91FF90EF90DF90CF903F
:10557000BF90AF909F908F907F906F905F904F9073
:105580003F902F9008958F929F92AF92BF92CF92AB
:10559000DF92EF92FF920F931F93CF93DF93CDB7DC
:1055A000DEB7C651D140CDBFDEBF6C01CE01019642
:1055B000CB5EDE4F4883C551D140CA5EDE4F588373
:1055C000C651D140CD5EDE4F6883C351D140CC5E21
:1055D000DE4F7883C451D140FDD9CB5EDE4F488188
:1055E000C551D140CA5EDE4F5881C651D140CD5E13
:1055F000DE4F6881C351D140CC5EDE4F7881C4510B
:10560000D140CE010196FCD98C01009709F0BBC0B6
:1056100089819A81D6018D939C9341E050E0049753
:1056200011F040E050E0CA0124E0880F991F2A954C
:10563000E1F7C096880F991F880F991FFC013296D9
:1056400021E030E02C0F3D1FE20FF31FD901A80F1E
:10565000B91F12968D909D90AD90BC901597D60174
:1056600012968D929D92AD92BC92159784809580F2
:10567000A680B78016968D929D92AD92BC92199796
:1056800080849184A284B3841A968D929D92AD9267
:10569000BC921D977601B2E1EB0EF11C84849584D7
:1056A000A684B784D6011E968D929D92AD92BC922F
:1056B000519763E0440F551F6A95E1F76A01B6E11F
:1056C000CB0ED11CBF0168507109F7019B01D901B4
:1056D0008D909D90AD90BC90139780829182A28214
:1056E000B38214968D909D90AD90BC901797848254
:1056F0009582A682B782B1E0CB1AD1082850310931
:105700003896C114D10419F7FA01759683E0EE0FAB
:10571000FF1F8A95E1F7EE0DFF1D88EF282F240368
:10572000D001259FB00D11249D01285A3109260F63
:10573000371FD90150978D919D910D90BC91A02D4F
:1057400080879187A287B387D9011C978D919D91FE
:105750000D90BC91A02D84879587A687B787D90126
:1057600018974D915D916D917C911397408B518B62
:10577000628B738B14964D915D916D917C91448BEE
:10578000558B668B778BCE0101962DD9C801CA5EE9
:10579000DE4FCDBFDEBFDF91CF911F910F91FF9004
:1057A000EF90DF90CF90BF90AF909F908F90089533
:1057B0002F923F924F925F926F927F928F929F9221
:1057C000AF92BF92CF92DF92EF92FF920F931F930F
:1057D000CF93DF93CDB7DEB76697CDBFDEBF8D8B9E
:1057E0009E8BFA016901DC012D903C901197848118
:1057F0004580512C612C712C320155244424782A87
:105800008781482A8681582A8085418550E060E05A
:1058100070E0BA0155274427782B8385482B828571
:10582000582B8485058510E020E030E09801112791
:105830000027382B8785082B8685182B808191813E
:10584000892E912CA12CB12C540199248824B82A9A
:105850008381882A8281982A12968D919D910D903C
:10586000BC91A02D88269926AA26BB2689829A82D9
:10587000AB82BC82ED89FE8986809780A084B1844A
:10588000482459246A247B244D825E826F82788664
:105890004284538464847584442555256625772580
:1058A00049875A876B877C877F01F2E1EF0EF11CF5
:1058B000ED89FE8986859785A089B18908271927F2
:1058C0002A273B270D871E872F87388B2114310409
:1058D00009F4A3C0F1E02F1A3108AE01475F5F4F12
:1058E000B701CE0101960E942F24AE014F5F5F4F9A
:1058F000B701685F7F4FCE0109960E942F24AE0149
:10590000475F5F4FB701605F7F4FCE0101960E94F6
:105910002F24AE014F5F5F4FB701685E7F4FCE010E
:1059200009960E942F24AE01475F5F4FB701605E6A
:105930007F4FCE0101960E942F24AE014F5F5F4F33
:10594000B701685D7F4FCE0109960E942F24211474
:10595000310421F480E3E80EF11CB8CF09811A81EB
:105960002B813C81F70180A991A9A2A9B3A9802329
:105970009123A223B323880F991FAA1FBB1F811D48
:105980004D815E816F81788584279527A627B7276B
:105990008D839E83AF83B88744A955A966A977A94B
:1059A000482B592B6A2B7B2B4027512762277327C3
:1059B00049835A836B837C830D851E852F853889A7
:1059C00044AD55AD66AD77AD402B512B622B732B9B
:1059D00089859A85AB85BC85482759276A277B2707
:1059E00049875A876B877C8780AD91ADA2ADB3ADF7
:1059F00084239523A623B723880F991FAA1FBB1FB3
:105A0000811D80279127A227B3278D879E87AF8787
:105A1000B88BF0E4EF0EF11C59CFD7014D905D909B
:105A20006D907C9089859A85AB85BC8548265926E2
:105A30006A267B26F70104811581268137818D85B1
:105A40009E85AF85B889082719272A273B274085D7
:105A500051856285738589819A81AB81BC81482794
:105A600059276A277B2784859585A685B7858D80EC
:105A70009E80AF80B88488259925AA25BB25F6018C
:105A80007082618252824382348325831683078326
:105A90007087618752874387B487A58796878787F2
:105AA00080E090E06696CDBFDEBFDF91CF911F9181
:105AB0000F91FF90EF90DF90CF90BF90AF909F90AD
:105AC0008F907F906F905F904F903F902F900895B0
:105AD0005F926F927F928F929F92AF92BF92CF927E
