:10000000FDC0000012C1000010C100000EC10000C0
:100010000CC100000AC1000008C1000006C10000B8
:1000200004C1000002C1000000C10000FEC00000C9
:10003000FCC00000FAC00000F8C00000F6C00000DC
:10004000F4C00000F2C00000F0C00000EEC00000EC
:10005000ECC00000EAC00000E8C00000E6C00000FC
:10006000E4C00000E2C00000E0C00000DEC000000C
:10007000DCC00000DAC00000D8C00000D6C000001C
:10008000D4C00000D2C00000D0C00000CEC000002C
:10009000CCC00000CAC00000C8C00000C6C000003C
:1000A000C4C00000C2C00000C0C00000BEC000004C
:1000B000BCC00000BAC00000B8C00000B6C000005C
:1000C000B4C00000B2C00000B0C00000AEC000006C
:1000D000ACC00000AAC00000A8C00000A6C000007C
:1000E000A4C00000A2C00000A0C000009EC000008C
:1000F0009CC000009AC0000098C0000096C000009C
:1001000094C0000092C0000090C000008EC00000AB
:100110008CC000008AC0000088C0000086C00000BB
:1001200084C0000082C0000080C000007EC00000CB
:100130007CC000007AC0000078C0000076C00000DB
:1001400074C0000072C0000070C000006EC00000EB
:100150006CC000006AC0000068C0000066C00000FB
:1001600064C0000062C0000060C000005EC000000B
:100170005CC000005AC0000058C0000056C000001B
:1001800054C0000052C0000050C000004EC000002B
:100190004CC000004AC0000048C0000046C000003B
:1001A00044C0000042C0000040C000003EC000004B
:1001B0003CC000003AC0000038C0000036C000005B
:1001C00034C0000032C0000030C000002EC000006B
:1001D0002CC000002AC0000028C0000026C000007B
:1001E00024C0000022C0000020C000001EC000008B
:1001F0001CC000001AC0000018C0000011241FBE5F
:10020000CFEFCDBFDFE9DEBF00E00CBF10E2A0E022
:10021000B0E2E2E5F7E000E00BBF02C007900D920C
:10022000AE31B107D9F733D292C2EACE8FEF8093C5
:1002300070008093710080937200809373008093AC
:100240007400809375008093760008959FB7F894AA
:10025000E82FF0E0E059FF4F60958081862380838E
:100260009FBF0895FC0180E090E0262F30E0D90187
:10027000082E02C0B595A7950A94E2F7A0FF05C025
:10028000DF01A80FB91F50965C9301968830910545
:1002900071F740FF07C041FF02C0658301C066835C
:1002A0006183089562830895AB01982F9695969582
:1002B0009695877061E070E001C0660F8A95EAF755
:1002C00020E2929FC00111249A5FCCCF63E070E0DE
:1002D00080E2EADF63E070E081E2E6DF63E070E0A5
:1002E00082E2E2DF63E070E083E2DEDF63E070E0A1
:1002F00084E2DADF63E070E085E2D6DF63E070E09D
:1003000086E2D2DF63E070E087E2CEDF60E078E192
:1003100088E2CADF60E078E189E2C6DF60E078E188
:100320008AE2C2DF60E078E18BE2BEDF60E078E184
:100330008CE2BADF60E078E18DE2B6DF60E078E180
:100340008EE2B2DF60E078E18FE2AEDF63E070E082
:100350008BE1AADF60E070E08AE1A6CF009709F4A4
:1003600082C0803C910511F460E105C0811524E054
:10037000920719F464E080E075C0803821E09207AC
:1003800011F462E0F8CF811521E0920711F461E0E9
:10039000F2CF803823E0920711F461E005C08115A7
:1003A00022E0920719F462E081E05CC0811528E048
:1003B000920711F461E04FC0811529E0920711F412
:1003C00061E02FC081152AE0920711F461E049C075
:1003D00081152BE0920711F461E030C0803428E0F1
:1003E000920711F462E037C0803928E0920711F4D7
:1003F00064E031C0803C28E0920711F468E02BC033
:10040000803C29E0920711F468E00BC0803A28E0B4
:10041000920711F460E11FC0803A29E0920719F4B5
:1004200060E184E01FC0803A2AE0920711F460E1A5
:1004300018C0803A2BE0920719F460E186E012C000
:10044000803B28E0920711F460E205C0803824E088
:10045000920719F460E483E005C0803A944019F4EF
:1004600060E485E0F3CE0895FC01218125FFFCCFF7
:10047000608380E090E00895FC01218127FFFCCF9C
:10048000808108958F929F92AF92BF92CF92DF9218
:10049000EF92FF920F931F93CF93DF93EC016A01CA
:1004A0007B0148015901B901A801A3E07695679540
:1004B00057954795AA95D1F7D901C80116E1B69588
:1004C000A795979587951A95D1F72C8122FD08C09D
:1004D0007695679557954795B695A795979587957E
:1004E0004C155D056E057F0508F497C0C816D90642
:1004F000EA06FB0608F491C08C8182FD04C0CC0C96
:10050000DD1CEE1CFF1CC501B401A7019601FDD046
:100510008FEF90E0A0E0B0E019EF281739074A0705
:100520005B0758F0880F991FAA1FBB1F1D3F0CF4D3
:1005300081601F5F173089F74BC017FF49C0D70193
:10054000C60103E0880F991FAA1FBB1F0A95D1F7A8
:10055000881A990AAA0ABB0A812F992787FD9095C4
:100560001E3FE4F46DEF7FEF681B790BA50194014A
:1005700004C0220F331F441F551F6A95D2F7CA01CA
:10058000B90146015701B694A79497948794680DD2
:10059000791D8A1D9B1DA701960118C09C012D5F26
:1005A0003F4FD701C60104C0880F991FAA1FBB1F68
:1005B0002A95D2F79C01AD01BC01CD019695879596
:1005C00077956795680D791D8A1D9B1D9ED01CC06F
:1005D00023E0210FD701C60104C0880F991FAA1F6D
:1005E000BB1F2A95D2F79C01AD01BC01CD019695A8
:1005F000879577956795680D791D8A1D9B1D85D018
:100600002150310941095109832F8F701295107FB4
:10061000812B8F832E8381E001C080E0DF91CF9119
:100620001F910F91FF90EF90DF90CF90BF90AF9010
:100630009F908F9008950F931F93CF93DF93EC01BA
:100640008B018CDE8D818F738D83F8018481958180
:10065000892B9681992311F098E001C090E0892BB5
:100660008D83F801408151816281738100E814E833
:100670002EE130E0CE0106DF9C8198609C839C8156
:1006800090619C83DF91CF911F910F910895CF933B
:10069000DF93CDB7DEB76797CDBFDEBF87E1E7E079
:1006A000F0E2DE01119601900D928A95E1F70EDEDF
:1006B000BDDD60E070E280EA99E0BDDF7E0187E1A8
:1006C000E80EF11C8E010F5F1F4FF80161918F0141
:1006D00080EA99E0C9DE0E151F05B9F780EA99E0B6
:1006E000CBDE8D3069F48E010F5F1F4FF8016191F1
:1006F0008F0180EA99E0B8DE0E151F05B9F7EECF3D
:10070000682F80EA99E0B0DEE9CFA1E21A2EAA1B99
:10071000BB1BFD010DC0AA1FBB1FEE1FFF1FA217B1
:10072000B307E407F50720F0A21BB30BE40BF50BAE
:10073000661F771F881F991F1A9469F76095709537
:10074000809590959B01AC01BD01CF010895F8946F
:02075000FFCFD9
:10075200802500000300000A0D48656C6C6F204183
:0E076200565220776F726C642021203A2000DE
:00000001FF
