S0130000426F6F746C6F61646572582E73726563AE
S214060000FDC000000DC100000BC1000009C10000C4
S21406001007C1000005C1000003C1000001C10000C1
S214060020FFC00000FDC0000095C40000F9C0000037
S214060030F7C00000F5C00000F3C00000F1C00000E5
S214060040EFC00000EDC00000EBC00000E9C00000F5
S214060050E7C00000E5C00000E3C00000E1C0000005
S214060060DFC00000DDC00000DBC00000D9C0000015
S214060070D7C00000D5C00000D3C00000D1C0000025
S214060080CFC00000CDC00000CBC00000C9C0000035
S214060090C7C00000C5C00000C3C00000C1C0000045
S2140600A0BFC00000BDC00000BBC00000B9C0000055
S2140600B0B7C00000B5C00000B3C00000B1C0000065
S2140600C0AFC00000ADC00000ABC00000A9C0000075
S2140600D0A7C00000A5C00000A3C00000A1C0000085
S2140600E09FC000009DC000009BC0000099C0000095
S2140600F097C0000095C0000093C0000091C00000A5
S2140601008FC000008DC000008BC0000089C00000B4
S21406011087C0000085C0000083C0000081C00000C4
S2140601207FC000007DC000007BC0000079C00000D4
S21406013077C0000075C0000073C0000071C00000E4
S2140601406FC000006DC000006BC0000069C00000F4
S21406015067C0000065C0000063C0000061C0000004
S2140601605FC000005DC000005BC0000059C0000014
S21406017057C0000055C0000053C0000051C0000024
S2140601804FC000004DC000004BC0000049C0000034
S21406019047C0000045C0000043C0000041C0000044
S2140601A03FC000003DC000003BC0000039C0000054
S2140601B037C0000035C0000033C0000031C0000064
S2140601C02FC000002DC000002BC0000029C0000074
S2140601D027C0000025C0000023C0000021C0000084
S2140601E01FC000001DC000001BC0000019C0000094
S2140601F017C0000015C0000013C0000011241FBE63
S214060200CFEFCDBFDFE9DEBF03E00CBF20E2A0E004
S214060210B0E201C01D92A430B207E1F7D4D1E2C322
S214060220EFCE1BBEFC0128ED24BF608308950F9316
S214060230CF93DF931F92CDB7DEB72FB72983F894F7
S2140602401BBEFC0108ED04BF608389818FBF0F903B
S214060250DF91CF910F910895E0E5F0E02081982F89
S2140602609095922390839081892308951F93CF9328
S214060270DF93182FC0E4D0E06881687F682B80E49F
S21406028090E0D5DF88818123DF91CF911F91089575
S21406029020915600982F90959223611102C020E077
S2140602A001C0282F922B90935600813031F480910E
S2140602B068008160809368000895823011F084306B
S2140602C029F4809160008160809360000895809193
S2140602D0CF0187FDFCCF0895E0EAF0E082818064D6
S2140602E098ED94BF82830895E0EAF0E082818F7BE2
S2140602F098ED94BF828308954F925F926F927F9295
S2140603008F929F92AF92BF92CF92DF92EF92FF921A
S2140603100F931F93CF93DF93CDB7DEB7C450D2406B
S214060320CDBFDEBF4C01653409F0AEC0CF5FDD4FF2
S2140603302883C150D240CE5FDD4F3883C250D240AC
S214060340CD5FDD4F4883C350D240CC5FDD4F588328
S214060350C450D24091D28091CC01877F8093CC0145
S2140603608E010F5F1F4FC12CD12C7601A12CB12C0C
S214060370CF5FDD4F2881C150D240CE5FDD4F38813A
S214060380C250D240CD5FDD4F4881C350D240CC5FCD
S214060390DD4F5881C450D240C814D904EA04FB0481
S2140603A090F5CF5FDD4F2883C150D240CE5FDD4F3C
S2140603B03883C250D240CD5FDD4F4883C350D2400B
S2140603C0CC5FDD4F5883C450D24005D3F8018193E5
S2140603D08F01FFEFCF1ADF0AEF0AFF0ACC5FDD4F69
S2140603E05881C450D240CD5FDD4F4881C350D240BD
S2140603F0CE5FDD4F3881C250D240CF5FDD4F2881B9
S214060400C150D240C9CF8E010F5F1F4FC12CD12CD1
S2140604107601C814D904EA04FB0408F05FC0F801A4
S21406042061918F01C601820F931FCF5FDD4F288330
S214060430C150D240CE5FDD4F3883C250D240CD5F2A
S214060440DD4F4883C350D240CC5FDD4F5883C4503F
S214060450D2403DD2FFEFCF1ADF0AEF0AFF0ACC5F83
S214060460DD4F5881C450D240CD5FDD4F4881C35022
S214060470D240CE5FDD4F3881C250D240CF5FDD4FCF
S2140604802881C150D240C5CF663451F529013A01BC
S214060490440C551C661C771C1ADF46E260E070E0CA
S2140604A0CB01A2D2C12CD12C7601C814D90480F473
S2140604B092D2082F10E08FD2182B09DFA801C701A9
S2140604C0B601A1D282E0C80ED11CE11CF11CEDCF0C
S2140604D0FEDE45E2C301B20187D2F9DE8DE001C039
S2140604E08FE3CC5FDD4FCDBFDEBFDF91CF911F918F
S2140604F00F91FF90EF90DF90CF90BF90AF909F90B8
S2140605008F907F906F905F904F900895CF92DF9276
S214060510EF92FF920F931F93CF93DF9300D01F9215
S214060520CDB7DEB78C01653419F58091CC01877F8F
S2140605308093CC0129833A834B835C839DD15C816F
S2140605404B813A812981C90129833A834B835C838F
S21406055082D13AD229813A814B815C812F5F3F4F07
S2140605604F4F5F4F015011090115110561F71FC066
S2140605706634E9F469017A01CC0CDD1CEE1CFF1C1E
S214060580EBBEF601879120D2D701C6010196A11DC2
S214060590B11DABBFFC01879117D282E0C80ED11CF5
S2140605A0E11CF11C025011090115110549F72496A4
S2140605B0CDBFDEBFDF91CF911F910F91FF90EF90D9
S2140605C0DF90CF90089588DE8091500084608093F7
S2140605D050008091510082FFFCCF809150008260CF
S2140605E0809350008091510081FFFCCF81E03EDE73
S2140605F081E032DE61E082E04BDE8091CC01877FCF
S2140606008093CC0180918406806180938406C7D14E
S214060610C0E0D0E0C12CD12C7601DDD1813611F4B4
S21406062089E502C1813461F4D6D1C82ED12CE12CDD
S214060630F12CFE2CED2CDC2CCC24CDD1C82AD0C037
S2140606408834B1F4C8D1C82ED12CE12CF12C760111
S214060650DD24CC24C0D1882EBED1C82A912C982C55
S2140606608824A12CB12CC828D928EA28FB28B8C08B
S2140606708536A9F4C12CD12C760129DE28DE42E285
S214060680C701B601B1D182E0D80EE11CF11CC11437
S214060690D104E6E0EE06F10481F759D1A1C0823610
S2140606A021F489E591D182E091C0823471F493D128
S2140606B0C82F91D1D0E0DC2FCC27C82B8CD1A70130
S2140606C09601682FCE0118DEAFC0873671F483D147
S2140606D0C82F81D1D0E0DC2FCC27C82B7CD1A70130
S2140606E09601682FCE0112DF98CF8235A9F4EFDD8A
S2140606F046015701880C991CAA1CBB1CD501C401CF
S2140607000196A11DB11DABBFFC0187915DD1ABBEA5
S214060710F401879159D133C0833621F45CD1C82FB2
S214060720D0E05EC0833489F456D1D82BD0DDC7011D
S214060730B601660F771F881F991FAE0164D18FEF2B
S214060740C81AD80AE80AF80A4BC08D3691F4C114BE
S214060750D104E3E0EE06F10408F065C0B8DDB7DDC7
S21406076045E2C701B601660F771F881F991F3CD161
S21406077037C0843451F42FD1682FC601A8D0FFEFB6
S214060780CF1ADF0AEF0AFF0A48CF843649F4C601B5
S21406079062D01AD18FEFC81AD80AE80AF80A3DCFEF
S2140607A08035F1F08C34E1F0853449F490DD8DE047
S2140607B00BD19ADD1CBEE0E0F0E019952ECF80370F
S2140607C011F483E531C0843721F48AEFFDD080E04A
S2140607D02BC098E8980F923010F0843519F4FBD0A9
S2140607E08DE022C0833571F481E4EED086E5ECD048
S2140607F082E5EAD082E4E8D08FE4E6D08FE4E4D05F
S21406080084E512C0863521F481E3DED087E30CC08A
S214060810833731F485E4D8D088E9D6D08EE104C093
S2140608208B3109F4FACE8FE3CFD0F7CE8091CF0185
S21406083087FDFCCF08951F93CF93DF93C0ECD1E0DE
S2140608401A858A8761E08BEC91E0EBDC1A87DF91EC
S214060850CF911F910895CF93DF93EC01E7DFECEC81
S214060860F1E0808188608083D05F88819081977F61
S2140608709083DF91CF910895D9DF8091CF0181FFD4
S21406088007C086E38093CA0161E08BEC91E0C9CC91
S2140608900895CF93DF931F921F92CDB7DEB76A8374
S2140608A08983C4DF2CEC31E0D9019C9198609C9337
S2140608B08981A82FB0E0B05F6A816C93F9018081C8
S2140608C0877F80830F900F90DF91CF910895EF92E8
S2140608D0FF920F931F93CF93DF931F921F92CDB76E
S2140608E0DEB7182F20ECE22EFF24F394F7010285DC
S2140608F069839A83C1DF9ADF6981812FCADFF70190
S21406090012829A819183108385E3828761E08BEC5D
S21406091091E087DCF70102870F900F90DF91CF9169
S2140609201F910F91FF90EF900895CF93DF93D82FE6
S214060930A3DF7CDFC0E06D2F8C2FABDFCF5FC0322E
S214060940D1F7DF91CF91089571DF80E374CF8FEFF3
S214060950ECDFFACF1F920F920FB60F9211248F93E9
S2140609609F93AF93BF938091002090910120A09112
S2140609700220B09103200196A11DB11D8093002090
S21406098090930120A0930220B0930320BF91AF91CD
S2140609909F918F910F900FBE0F901F901895E0E8CD
S2140609A0F6E088E0818384E08283E0EAFAE083E08A
S2140609B0858383E8868380ED87838481806184834C
S2140609C084818860848308959091A10A95FFFCCF60
S2140609D08093A00A08958091A10A87FFFCCF809194
S20C0609E0A00A0895F894FFCF63
S2140609E89BB78BBFFB018091CA014093CA017DE97C
S2140609F870933400E8958093CA019BBF08952091AA
S214060A08CF0127FDFCCF9BB78BBFFB018091CA01A0
S214060A1823E22093CA010A01E89511248093CA01A5
S208060A289BBF0895C8
S804060000F5
