:0200000260009C
:10000000FDC000000DC100000BC1000009C10000CF
:1000100007C1000005C1000003C1000001C10000CC
:10002000FFC00000FDC00000FBC00000F9C00000E0
:10003000F7C00000F5C00000F3C00000F1C00000F0
:10004000EFC00000EDC00000EBC00000E9C0000000
:10005000E7C00000E5C00000E3C00000E1C0000010
:10006000DFC00000DDC00000DBC00000D9C0000020
:10007000D7C00000D5C00000D3C00000D1C0000030
:10008000CFC00000CDC00000CBC00000C9C0000040
:10009000C7C00000C5C00000C3C00000C1C0000050
:1000A000BFC00000BDC00000BBC00000B9C0000060
:1000B000B7C00000B5C00000B3C00000B1C0000070
:1000C000AFC00000ADC00000ABC00000A9C0000080
:1000D000A7C00000A5C00000A3C00000A1C0000090
:1000E0009FC000009DC000009BC0000099C00000A0
:1000F00097C0000095C0000093C0000091C00000B0
:100100008FC000008DC000008BC0000089C00000BF
:1001100087C0000085C0000083C0000081C00000CF
:100120007FC000007DC000007BC0000079C00000DF
:1001300077C0000075C0000073C0000071C00000EF
:100140006FC000006DC000006BC0000069C00000FF
:1001500067C0000065C0000063C0000061C000000F
:100160005FC000005DC000005BC0000059C000001F
:1001700057C0000055C0000053C0000051C000002F
:100180004FC000004DC000004BC0000049C000003F
:1001900047C0000045C0000043C0000041C000004F
:1001A0003FC000003DC000003BC0000039C000005F
:1001B00037C0000035C0000033C0000031C000006F
:1001C0002FC000002DC000002BC0000029C000007F
:1001D00027C0000025C0000023C0000021C000008F
:1001E0001FC000001DC000001BC0000019C000009F
:1001F00017C0000015C0000013C0000011241FBE6E
:10020000CFEFCDBFDFE9DEBF03E00CBF20E2A0E00F
:10021000B0E201C01D92A030B207E1F780D14CC31B
:10022000EFCE1BBEFC0128ED24BF608308958091B2
:10023000CF0187FDFCCF0895E0EAF0E08281806481
:1002400098ED94BF82830895E0EAF0E082818F7B8D
:1002500098ED94BF828308954F925F926F927F9240
:100260008F929F92AF92BF92CF92DF92EF92FF92C6
:100270000F931F93CF93DF93CDB7DEB7C450D24017
:10028000CDBFDEBF4C01653409F0AEC0CF5FDD4F9E
:100290002883C150D240CE5FDD4F3883C250D24058
:1002A000CD5FDD4F4883C350D240CC5FDD4F5883D4
:1002B000C450D24074D28091CC01877F8093CC010E
:1002C0008E010F5F1F4FC12CD12C7601A12CB12CB8
:1002D000CF5FDD4F2881C150D240CE5FDD4F3881E6
:1002E000C250D240CD5FDD4F4881C350D240CC5F79
:1002F000DD4F5881C450D240C814D904EA04FB042D
:1003000090F5CF5FDD4F2883C150D240CE5FDD4FE7
:100310003883C250D240CD5FDD4F4883C350D240B6
:10032000CC5FDD4F5883C450D240BFD2F8018193D7
:100330008F01FFEFCF1ADF0AEF0AFF0ACC5FDD4F14
:100340005881C450D240CD5FDD4F4881C350D24068
:10035000CE5FDD4F3881C250D240CF5FDD4F288164
:10036000C150D240C9CF8E010F5F1F4FC12CD12C7D
:100370007601C814D904EA04FB0408F05FC0F80150
:1003800061918F01C601820F931FCF5FDD4F2883DC
:10039000C150D240CE5FDD4F3883C250D240CD5FD6
:1003A000DD4F4883C350D240CC5FDD4F5883C450EB
:1003B000D24020D2FFEFCF1ADF0AEF0AFF0ACC5F4C
:1003C000DD4F5881C450D240CD5FDD4F4881C350CE
:1003D000D240CE5FDD4F3881C250D240CF5FDD4F7B
:1003E0002881C150D240C5CF663451F529013A0168
:1003F000440C551C661C771C1ADF46E260E070E076
:10040000CB015CD2C12CD12C7601C814D90480F464
:100410004CD2082F10E049D2182B09DFA801C701E0
:10042000B6015BD282E0C80ED11CE11CF11CEDCFFD
:10043000FEDE45E2C301B20141D2F9DE8DE001C02A
:100440008FE3CC5FDD4FCDBFDEBFDF91CF911F913A
:100450000F91FF90EF90DF90CF90BF90AF909F9063
:100460008F907F906F905F904F900895CF92DF9222
:10047000EF92FF920F931F93CF93DF9300D01F92C1
:10048000CDB7DEB78C01653409F58091CC01877F4B
:100490008093CC0129833A834B835C8380D15C8138
:1004A0004B813A812981C90129833A834B835C833B
:1004B00065D1EFD129813A814B815C812F5F3F4F1C
:1004C0004F4F5F4F0150110971F71DC06634D9F4C9
:1004D00069017A01CC0CDD1CEE1CFF1CEBBEF601A1
:1004E0008791D7D1D701C6010196A11DB11DABBF20
:1004F000FC018791CED182E0C80ED11CE11CF11C19
:100500000250110959F72496CDBFDEBFDF91CF917C
:100510001F910F91FF90EF90DF90CF9008958CDEA8
:100520008091CC01877F8093CC01809164068061AB
:1005300080936406A2D1C0E0D0E0C12CD12C76011A
:10054000B4D1813611F489E502C1813461F4ADD1B1
:10055000C82ED12CE12CF12CFE2CED2CDC2CCC2443
:10056000A4D1C82AD0C08834B1F49FD1C82ED12CD0
:10057000E12CF12C7601DD24CC2497D1882E95D165
:10058000C82A912C982C8824A12CB12CC828D928B1
:10059000EA28FB28B8C08536A9F4C12CD12C7601F5
:1005A00046DE45DE42E2C701B60188D182E0D80EC0
:1005B000E11CF11CC114D104E6E0EE06F10481F760
:1005C00059D1A1C0823621F489E563D182E091C07E
:1005D000823471F46AD1C82F68D1D0E0DC2FCC27E7
:1005E000C82B63D1A7019601682FCE0135DEAFC0BD
:1005F000873671F45AD1C82F58D1D0E0DC2FCC27E0
:10060000C82B53D1A7019601682FCE012FDF98CFB9
:100610008235A9F40CDE46015701880C991CAA1CEE
:10062000BB1CD501C4010196A11DB11DABBFFC01CE
:1006300087912FD1ABBEF40187912BD133C0833684
:1006400021F433D1C82FD0E05EC0833489F42DD19A
:10065000D82BEDDDC701B601660F771F881F991FE4
:10066000AE013BD18FEFC81AD80AE80AF80A4BC08E
:100670008D3691F4C114D104E3E0EE06F10408F0E4
:1006800065C0D5DDD4DD45E2C701B601660F771F31
:10069000881F991F13D137C0843451F406D1682FB5
:1006A000C601A8D0FFEFCF1ADF0AEF0AFF0A48CF32
:1006B000843649F4C60162D0ECD08FEFC81AD80A4C
:1006C000E80AF80A3DCF8035F1F08C34E1F085344A
:1006D00049F4ADDD8DE0DDD0B7DD1CBEE0E0F0E03B
:1006E00019952ECF803711F483E531C0843721F47A
:1006F0008AEFCFD080E02BC098E8980F923010F0AE
:10070000843519F4D2D08DE022C0833571F481E4B0
:10071000C0D086E5BED082E5BCD082E4BAD08FE4FA
:10072000B8D08FE4B6D084E512C0863521F481E3D9
:10073000B0D087E30CC0833731F485E4AAD088E9D0
:10074000A8D08EE104C08B3109F4FACE8FE3A1D09A
:10075000F7CE8091CF0187FDFCCF08951F93CF93F3
:10076000DF93C0ECD1E01A858A8761E08BEC91E0E1
:1007700058DD1A87DF91CF911F910895CF93DF93B2
:10078000EC01E7DFECECF1E0808188608083D05FF2
:1007900088819081977F9083DF91CF910895D9DFF1
:1007A0008091CF0181FF07C086E38093CA0161E099
:1007B0008BEC91E036CD0895CF93DF931F921F927B
:1007C000CDB7DEB76A838983C4DF2CEC31E0D90171
:1007D0009C9198609C938981A82FB0E0B05F6A815A
:1007E0006C93F9018081877F80830F900F90DF9158
:1007F000CF910895EF92FF920F931F93CF93DF93C2
:100800001F921F92CDB7DEB7182F20ECE22EFF24E7
:10081000F394F701028569839A83C1DF9ADF6981C6
:10082000812FCADFF70112829A819183108385E3B9
:10083000828761E08BEC91E0F4DCF70102870F9096
:100840000F90DF91CF911F910F91FF90EF9008953E
:10085000CF93DF93D82FA3DF7CDFC0E06D2F8C2FE9
:10086000ABDFCF5FC032D1F7DF91CF91089571DF59
:1008700080E374CF8FEFECDFFACFE0E6F6E0818122
:1008800088608183E0EAF9E08CE0868388E18483F4
:1008900008958093A0098091A10986FFFCCF8091E3
:1008A000A10980648093A10908958091A10987FF1F
:0C08B000FCCF8091A0090895F894FFCFC0
:1008BC009BB78BBFFB018091CA014093CA017DE9B4
:1008CC0070933400E8958093CA019BBF08952091E2
:1008DC00CF0127FDFCCF9BB78BBFFB018091CA01D9
:1008EC0023E22093CA010A01E89511248093CA01DE
:0408FC009BBF089501
:040000036000000099
:00000001FF
